{
  "_format": "hh-sol-artifact-1",
  "contractName": "BillOfLading",
  "sourceName": "contracts/BillOfLading.sol",
  "abi": [
    {
      "inputs": [
        {
          "internalType": "bytes32",
          "name": "bolHash",
          "type": "bytes32"
        },
        {
          "internalType": "address",
          "name": "seller",
          "type": "address"
        },
        {
          "internalType": "address",
          "name": "buyer",
          "type": "address"
        },
        {
          "internalType": "uint256",
          "name": "declaredValue",
          "type": "uint256"
        },
        {
          "internalType": "string",
          "name": "_blNumber",
          "type": "string"
        }
      ],
      "stateMutability": "nonpayable",
      "type": "constructor"
    },
    {
      "inputs": [
        {
          "internalType": "address",
          "name": "sender",
          "type": "address"
        },
        {
          "internalType": "uint256",
          "name": "tokenId",
          "type": "uint256"
        },
        {
          "internalType": "address",
          "name": "owner",
          "type": "address"
        }
      ],
      "name": "ERC721IncorrectOwner",
      "type": "error"
    },
    {
      "inputs": [
        {
          "internalType": "address",
          "name": "operator",
          "type": "address"
        },
        {
          "internalType": "uint256",
          "name": "tokenId",
          "type": "uint256"
        }
      ],
      "name": "ERC721InsufficientApproval",
      "type": "error"
    },
    {
      "inputs": [
        {
          "internalType": "address",
          "name": "approver",
          "type": "address"
        }
      ],
      "name": "ERC721InvalidApprover",
      "type": "error"
    },
    {
      "inputs": [
        {
          "internalType": "address",
          "name": "operator",
          "type": "address"
        }
      ],
      "name": "ERC721InvalidOperator",
      "type": "error"
    },
    {
      "inputs": [
        {
          "internalType": "address",
          "name": "owner",
          "type": "address"
        }
      ],
      "name": "ERC721InvalidOwner",
      "type": "error"
    },
    {
      "inputs": [
        {
          "internalType": "address",
          "name": "receiver",
          "type": "address"
        }
      ],
      "name": "ERC721InvalidReceiver",
      "type": "error"
    },
    {
      "inputs": [
        {
          "internalType": "address",
          "name": "sender",
          "type": "address"
        }
      ],
      "name": "ERC721InvalidSender",
      "type": "error"
    },
    {
      "inputs": [
        {
          "internalType": "uint256",
          "name": "tokenId",
          "type": "uint256"
        }
      ],
      "name": "ERC721NonexistentToken",
      "type": "error"
    },
    {
      "inputs": [
        {
          "internalType": "address",
          "name": "owner",
          "type": "address"
        }
      ],
      "name": "OwnableInvalidOwner",
      "type": "error"
    },
    {
      "inputs": [
        {
          "internalType": "address",
          "name": "account",
          "type": "address"
        }
      ],
      "name": "OwnableUnauthorizedAccount",
      "type": "error"
    },
    {
      "inputs": [],
      "name": "ReentrancyGuardReentrantCall",
      "type": "error"
    },
    {
      "inputs": [
        {
          "internalType": "address",
          "name": "token",
          "type": "address"
        }
      ],
      "name": "SafeERC20FailedOperation",
      "type": "error"
    },
    {
      "anonymous": false,
      "inputs": [],
      "name": "Active",
      "type": "event"
    },
    {
      "anonymous": false,
      "inputs": [
        {
          "indexed": true,
          "internalType": "address",
          "name": "owner",
          "type": "address"
        },
        {
          "indexed": true,
          "internalType": "address",
          "name": "approved",
          "type": "address"
        },
        {
          "indexed": true,
          "internalType": "uint256",
          "name": "tokenId",
          "type": "uint256"
        }
      ],
      "name": "Approval",
      "type": "event"
    },
    {
      "anonymous": false,
      "inputs": [
        {
          "indexed": true,
          "internalType": "address",
          "name": "owner",
          "type": "address"
        },
        {
          "indexed": true,
          "internalType": "address",
          "name": "operator",
          "type": "address"
        },
        {
          "indexed": false,
          "internalType": "bool",
          "name": "approved",
          "type": "bool"
        }
      ],
      "name": "ApprovalForAll",
      "type": "event"
    },
    {
      "anonymous": false,
      "inputs": [
        {
          "indexed": true,
          "internalType": "address",
          "name": "holder",
          "type": "address"
        },
        {
          "indexed": false,
          "internalType": "uint256",
          "name": "amount",
          "type": "uint256"
        },
        {
          "indexed": false,
          "internalType": "uint256",
          "name": "claimTokensBurned",
          "type": "uint256"
        }
      ],
      "name": "Claimed",
      "type": "event"
    },
    {
      "anonymous": false,
      "inputs": [
        {
          "indexed": true,
          "internalType": "address",
          "name": "buyer",
          "type": "address"
        },
        {
          "indexed": true,
          "internalType": "address",
          "name": "seller",
          "type": "address"
        },
        {
          "indexed": false,
          "internalType": "uint256",
          "name": "declaredValue",
          "type": "uint256"
        },
        {
          "indexed": false,
          "internalType": "string",
          "name": "blNumber",
          "type": "string"
        }
      ],
      "name": "Created",
      "type": "event"
    },
    {
      "anonymous": false,
      "inputs": [],
      "name": "Full",
      "type": "event"
    },
    {
      "anonymous": false,
      "inputs": [
        {
          "indexed": true,
          "internalType": "address",
          "name": "investor",
          "type": "address"
        },
        {
          "indexed": false,
          "internalType": "uint256",
          "name": "amount",
          "type": "uint256"
        },
        {
          "indexed": false,
          "internalType": "uint256",
          "name": "claimTokens",
          "type": "uint256"
        }
      ],
      "name": "Funded",
      "type": "event"
    },
    {
      "anonymous": false,
      "inputs": [],
      "name": "Inactive",
      "type": "event"
    },
    {
      "anonymous": false,
      "inputs": [
        {
          "indexed": true,
          "internalType": "address",
          "name": "previousOwner",
          "type": "address"
        },
        {
          "indexed": true,
          "internalType": "address",
          "name": "newOwner",
          "type": "address"
        }
      ],
      "name": "OwnershipTransferred",
      "type": "event"
    },
    {
      "anonymous": false,
      "inputs": [
        {
          "indexed": true,
          "internalType": "address",
          "name": "buyer",
          "type": "address"
        },
        {
          "indexed": false,
          "internalType": "uint256",
          "name": "amount",
          "type": "uint256"
        }
      ],
      "name": "Paid",
      "type": "event"
    },
    {
      "anonymous": false,
      "inputs": [],
      "name": "Settled",
      "type": "event"
    },
    {
      "anonymous": false,
      "inputs": [
        {
          "indexed": true,
          "internalType": "address",
          "name": "from",
          "type": "address"
        },
        {
          "indexed": true,
          "internalType": "address",
          "name": "to",
          "type": "address"
        },
        {
          "indexed": true,
          "internalType": "uint256",
          "name": "tokenId",
          "type": "uint256"
        }
      ],
      "name": "Transfer",
      "type": "event"
    },
    {
      "inputs": [],
      "name": "BOL_TOKEN_ID",
      "outputs": [
        {
          "internalType": "uint256",
          "name": "",
          "type": "uint256"
        }
      ],
      "stateMutability": "view",
      "type": "function"
    },
    {
      "inputs": [
        {
          "internalType": "address",
          "name": "to",
          "type": "address"
        },
        {
          "internalType": "uint256",
          "name": "tokenId",
          "type": "uint256"
        }
      ],
      "name": "approve",
      "outputs": [],
      "stateMutability": "nonpayable",
      "type": "function"
    },
    {
      "inputs": [
        {
          "internalType": "address",
          "name": "owner",
          "type": "address"
        }
      ],
      "name": "balanceOf",
      "outputs": [
        {
          "internalType": "uint256",
          "name": "",
          "type": "uint256"
        }
      ],
      "stateMutability": "view",
      "type": "function"
    },
    {
      "inputs": [],
      "name": "blNumber",
      "outputs": [
        {
          "internalType": "string",
          "name": "",
          "type": "string"
        }
      ],
      "stateMutability": "view",
      "type": "function"
    },
    {
      "inputs": [],
      "name": "claimToken",
      "outputs": [
        {
          "internalType": "contract ClaimToken",
          "name": "",
          "type": "address"
        }
      ],
      "stateMutability": "view",
      "type": "function"
    },
    {
      "inputs": [
        {
          "internalType": "uint256",
          "name": "amount",
          "type": "uint256"
        }
      ],
      "name": "fund",
      "outputs": [],
      "stateMutability": "nonpayable",
      "type": "function"
    },
    {
      "inputs": [
        {
          "internalType": "uint256",
          "name": "tokenId",
          "type": "uint256"
        }
      ],
      "name": "getApproved",
      "outputs": [
        {
          "internalType": "address",
          "name": "",
          "type": "address"
        }
      ],
      "stateMutability": "view",
      "type": "function"
    },
    {
      "inputs": [],
      "name": "getTradeState",
      "outputs": [
        {
          "components": [
            {
              "internalType": "bytes32",
              "name": "bolHash",
              "type": "bytes32"
            },
            {
              "internalType": "address",
              "name": "buyer",
              "type": "address"
            },
            {
              "internalType": "address",
              "name": "seller",
              "type": "address"
            },
            {
              "internalType": "address",
              "name": "stablecoin",
              "type": "address"
            },
            {
              "internalType": "uint256",
              "name": "declaredValue",
              "type": "uint256"
            },
            {
              "internalType": "uint256",
              "name": "totalFunded",
              "type": "uint256"
            },
            {
              "internalType": "uint256",
              "name": "totalRepaid",
              "type": "uint256"
            },
            {
              "internalType": "bool",
              "name": "settled",
              "type": "bool"
            },
            {
              "internalType": "bool",
              "name": "claimsIssued",
              "type": "bool"
            },
            {
              "internalType": "bool",
              "name": "fundingEnabled",
              "type": "bool"
            },
            {
              "internalType": "bool",
              "name": "nftMinted",
              "type": "bool"
            }
          ],
          "internalType": "struct BillOfLading.TradeState",
          "name": "state",
          "type": "tuple"
        }
      ],
      "stateMutability": "view",
      "type": "function"
    },
    {
      "inputs": [
        {
          "internalType": "address",
          "name": "owner",
          "type": "address"
        },
        {
          "internalType": "address",
          "name": "operator",
          "type": "address"
        }
      ],
      "name": "isApprovedForAll",
      "outputs": [
        {
          "internalType": "bool",
          "name": "",
          "type": "bool"
        }
      ],
      "stateMutability": "view",
      "type": "function"
    },
    {
      "inputs": [],
      "name": "issueClaims",
      "outputs": [],
      "stateMutability": "nonpayable",
      "type": "function"
    },
    {
      "inputs": [
        {
          "internalType": "address",
          "name": "buyer",
          "type": "address"
        },
        {
          "internalType": "address",
          "name": "seller",
          "type": "address"
        },
        {
          "internalType": "uint256",
          "name": "declaredValue",
          "type": "uint256"
        }
      ],
      "name": "mint",
      "outputs": [],
      "stateMutability": "nonpayable",
      "type": "function"
    },
    {
      "inputs": [],
      "name": "name",
      "outputs": [
        {
          "internalType": "string",
          "name": "",
          "type": "string"
        }
      ],
      "stateMutability": "view",
      "type": "function"
    },
    {
      "inputs": [],
      "name": "owner",
      "outputs": [
        {
          "internalType": "address",
          "name": "",
          "type": "address"
        }
      ],
      "stateMutability": "view",
      "type": "function"
    },
    {
      "inputs": [
        {
          "internalType": "uint256",
          "name": "tokenId",
          "type": "uint256"
        }
      ],
      "name": "ownerOf",
      "outputs": [
        {
          "internalType": "address",
          "name": "",
          "type": "address"
        }
      ],
      "stateMutability": "view",
      "type": "function"
    },
    {
      "inputs": [
        {
          "internalType": "uint256",
          "name": "amount",
          "type": "uint256"
        }
      ],
      "name": "pay",
      "outputs": [],
      "stateMutability": "nonpayable",
      "type": "function"
    },
    {
      "inputs": [],
      "name": "redeem",
      "outputs": [],
      "stateMutability": "nonpayable",
      "type": "function"
    },
    {
      "inputs": [
        {
          "internalType": "address",
          "name": "",
          "type": "address"
        }
      ],
      "name": "redeemedAmounts",
      "outputs": [
        {
          "internalType": "uint256",
          "name": "",
          "type": "uint256"
        }
      ],
      "stateMutability": "view",
      "type": "function"
    },
    {
      "inputs": [],
      "name": "renounceOwnership",
      "outputs": [],
      "stateMutability": "nonpayable",
      "type": "function"
    },
    {
      "inputs": [
        {
          "internalType": "address",
          "name": "from",
          "type": "address"
        },
        {
          "internalType": "address",
          "name": "to",
          "type": "address"
        },
        {
          "internalType": "uint256",
          "name": "tokenId",
          "type": "uint256"
        }
      ],
      "name": "safeTransferFrom",
      "outputs": [],
      "stateMutability": "nonpayable",
      "type": "function"
    },
    {
      "inputs": [
        {
          "internalType": "address",
          "name": "from",
          "type": "address"
        },
        {
          "internalType": "address",
          "name": "to",
          "type": "address"
        },
        {
          "internalType": "uint256",
          "name": "tokenId",
          "type": "uint256"
        },
        {
          "internalType": "bytes",
          "name": "data",
          "type": "bytes"
        }
      ],
      "name": "safeTransferFrom",
      "outputs": [],
      "stateMutability": "nonpayable",
      "type": "function"
    },
    {
      "inputs": [
        {
          "internalType": "address",
          "name": "operator",
          "type": "address"
        },
        {
          "internalType": "bool",
          "name": "approved",
          "type": "bool"
        }
      ],
      "name": "setApprovalForAll",
      "outputs": [],
      "stateMutability": "nonpayable",
      "type": "function"
    },
    {
      "inputs": [
        {
          "internalType": "address",
          "name": "stablecoin",
          "type": "address"
        }
      ],
      "name": "setStablecoin",
      "outputs": [],
      "stateMutability": "nonpayable",
      "type": "function"
    },
    {
      "inputs": [
        {
          "internalType": "bytes4",
          "name": "interfaceId",
          "type": "bytes4"
        }
      ],
      "name": "supportsInterface",
      "outputs": [
        {
          "internalType": "bool",
          "name": "",
          "type": "bool"
        }
      ],
      "stateMutability": "view",
      "type": "function"
    },
    {
      "inputs": [],
      "name": "surrender",
      "outputs": [],
      "stateMutability": "nonpayable",
      "type": "function"
    },
    {
      "inputs": [],
      "name": "symbol",
      "outputs": [
        {
          "internalType": "string",
          "name": "",
          "type": "string"
        }
      ],
      "stateMutability": "view",
      "type": "function"
    },
    {
      "inputs": [
        {
          "internalType": "uint256",
          "name": "tokenId",
          "type": "uint256"
        }
      ],
      "name": "tokenURI",
      "outputs": [
        {
          "internalType": "string",
          "name": "",
          "type": "string"
        }
      ],
      "stateMutability": "view",
      "type": "function"
    },
    {
      "inputs": [],
      "name": "tradeState",
      "outputs": [
        {
          "internalType": "bytes32",
          "name": "bolHash",
          "type": "bytes32"
        },
        {
          "internalType": "address",
          "name": "buyer",
          "type": "address"
        },
        {
          "internalType": "address",
          "name": "seller",
          "type": "address"
        },
        {
          "internalType": "address",
          "name": "stablecoin",
          "type": "address"
        },
        {
          "internalType": "uint256",
          "name": "declaredValue",
          "type": "uint256"
        },
        {
          "internalType": "uint256",
          "name": "totalFunded",
          "type": "uint256"
        },
        {
          "internalType": "uint256",
          "name": "totalRepaid",
          "type": "uint256"
        },
        {
          "internalType": "bool",
          "name": "settled",
          "type": "bool"
        },
        {
          "internalType": "bool",
          "name": "claimsIssued",
          "type": "bool"
        },
        {
          "internalType": "bool",
          "name": "fundingEnabled",
          "type": "bool"
        },
        {
          "internalType": "bool",
          "name": "nftMinted",
          "type": "bool"
        }
      ],
      "stateMutability": "view",
      "type": "function"
    },
    {
      "inputs": [
        {
          "internalType": "address",
          "name": "from",
          "type": "address"
        },
        {
          "internalType": "address",
          "name": "to",
          "type": "address"
        },
        {
          "internalType": "uint256",
          "name": "tokenId",
          "type": "uint256"
        }
      ],
      "name": "transferFrom",
      "outputs": [],
      "stateMutability": "nonpayable",
      "type": "function"
    },
    {
      "inputs": [
        {
          "internalType": "address",
          "name": "newOwner",
          "type": "address"
        }
      ],
      "name": "transferOwnership",
      "outputs": [],
      "stateMutability": "nonpayable",
      "type": "function"
    }
  ],
  "bytecode": "0x60806040523480156200001157600080fd5b5060405162003925380380620039258339810160408190526200003491620003ed565b336040518060400160405280600e81526020016d42696c6c206f66204c6164696e6760901b815250604051806040016040528060038152602001621093d360ea1b81525081600090816200008991906200058a565b5060016200009882826200058a565b5050506001600160a01b038116620000cb57604051631e4fbdf760e01b8152600060048201526024015b60405180910390fd5b620000d6816200035a565b5060016007556001600160a01b038416620001485760405162461bcd60e51b815260206004820152602b60248201527f42696c6c4f664c6164696e673a2073656c6c65722063616e6e6f74206265207a60448201526a65726f206164647265737360a81b6064820152608401620000c2565b6001600160a01b038316620001b35760405162461bcd60e51b815260206004820152602a60248201527f42696c6c4f664c6164696e673a2062757965722063616e6e6f74206265207a65604482015269726f206164647265737360b01b6064820152608401620000c2565b600082116200022b5760405162461bcd60e51b815260206004820152603660248201527f42696c6c4f664c6164696e673a206465636c617265642076616c7565206d757360448201527f742062652067726561746572207468616e207a65726f000000000000000000006064820152608401620000c2565b60408051610160810182528681526001600160a01b03808616602083018190529087169282018390526000606083018190526080830186905260a0830181905260c0830181905260e08301819052610100830181905261012083018190526101409092018290526009889055600a80546001600160a01b03199081169092179055600b80548216909317909255600c8054909216909155600d839055600e819055600f556010805463ffffffff191690556011620002ea82826200058a565b503082604051620002fb90620003ac565b6001600160a01b0390921682526020820152604001604051809103906000f0801580156200032d573d6000803e3d6000fd5b50600880546001600160a01b0319166001600160a01b039290921691909117905550620006569350505050565b600680546001600160a01b038381166001600160a01b0319831681179093556040519116919082907f8be0079c531659141344cd1fd0a4f28419497f9722a3daafe3b4186f6b6457e090600090a35050565b610cf78062002c2e83390190565b80516001600160a01b0381168114620003d257600080fd5b919050565b634e487b7160e01b600052604160045260246000fd5b600080600080600060a086880312156200040657600080fd5b85519450602062000419818801620003ba565b94506200042960408801620003ba565b6060880151608089015191955093506001600160401b03808211156200044e57600080fd5b818901915089601f8301126200046357600080fd5b815181811115620004785762000478620003d7565b604051601f8201601f19908116603f01168101908382118183101715620004a357620004a3620003d7565b816040528281528c86848701011115620004bc57600080fd5b600093505b82841015620004e05784840186015181850187015292850192620004c1565b60008684830101528096505050505050509295509295909350565b600181811c908216806200051057607f821691505b6020821081036200053157634e487b7160e01b600052602260045260246000fd5b50919050565b601f8211156200058557600081815260208120601f850160051c81016020861015620005605750805b601f850160051c820191505b8181101562000581578281556001016200056c565b5050505b505050565b81516001600160401b03811115620005a657620005a6620003d7565b620005be81620005b78454620004fb565b8462000537565b602080601f831160018114620005f65760008415620005dd5750858301515b600019600386901b1c1916600185901b17855562000581565b600085815260208120601f198616915b82811015620006275788860151825594840194600190910190840162000606565b5085821015620006465787850151600019600388901b60f8161c191681555b5050505050600190811b01905550565b6125c880620006666000396000f3fe608060405234801561001057600080fd5b50600436106101cf5760003560e01c806395d89b4111610104578063c6c3bbe6116100a2578063e088bfc011610071578063e088bfc014610549578063e985e9c51461055c578063ecfda4861461056f578063f2fde38b1461057757600080fd5b8063c6c3bbe614610508578063c87b56dd1461051b578063ca1d209d1461052e578063ca7957381461054157600080fd5b8063b88d4fde116100de578063b88d4fde146103dd578063be040fb0146103f0578063be43bef5146103f8578063c290d691146104f557600080fd5b806395d89b41146103ba578063a22cb465146103c2578063b71c47a2146103d557600080fd5b80634451d89f1161017157806370a082311161014b57806370a08231146102d3578063715018a6146102e6578063864e1827146102ee5780638da5cb5b146103a957600080fd5b80634451d89f146102a55780636352211e146102b85780636e826e0e146102cb57600080fd5b8063095ea7b3116101ad578063095ea7b31461023c57806323b872dd1461025157806334600f9d1461026457806342842e0e1461029257600080fd5b806301ffc9a7146101d457806306fdde03146101fc578063081812fc14610211575b600080fd5b6101e76101e2366004611f80565b61058a565b60405190151581526020015b60405180910390f35b6102046105dc565b6040516101f39190611fed565b61022461021f366004612000565b61066e565b6040516001600160a01b0390911681526020016101f3565b61024f61024a366004612035565b610697565b005b61024f61025f36600461205f565b6106a6565b61028461027236600461209b565b60126020526000908152604090205481565b6040519081526020016101f3565b61024f6102a036600461205f565b610736565b600854610224906001600160a01b031681565b6102246102c6366004612000565b610756565b610204610761565b6102846102e136600461209b565b6107ef565b61024f610837565b600954600a54600b54600c54600d54600e54600f5460105461034197966001600160a01b0390811696811695169392919060ff80821691610100810482169162010000820481169163010000009004168b565b604080519b8c526001600160a01b039a8b1660208d0152988a16988b0198909852979095166060890152608088019390935260a087019190915260c0860152151560e085015215156101008401529015156101208301521515610140820152610160016101f3565b6006546001600160a01b0316610224565b61020461084b565b61024f6103d03660046120b6565b61085a565b61024f610865565b61024f6103eb366004612108565b61092e565b61024f610946565b6104e86040805161016081018252600080825260208201819052918101829052606081018290526080810182905260a0810182905260c0810182905260e08101829052610100810182905261012081018290526101408101919091525060408051610160810182526009548152600a546001600160a01b039081166020830152600b54811692820192909252600c549091166060820152600d546080820152600e5460a0820152600f5460c082015260105460ff808216151560e0840152610100808304821615159084015262010000820481161515610120840152630100000090910416151561014082015290565b6040516101f391906121e4565b61024f610503366004612000565b610d93565b61024f61051636600461205f565b610ed5565b610204610529366004612000565b6110dc565b61024f61053c366004612000565b611151565b610284600181565b61024f61055736600461209b565b6113b4565b6101e761056a36600461229f565b6114b1565b61024f6114df565b61024f61058536600461209b565b61160a565b60006001600160e01b031982166380ac58cd60e01b14806105bb57506001600160e01b03198216635b5e139f60e01b145b806105d657506301ffc9a760e01b6001600160e01b03198316145b92915050565b6060600080546105eb906122d2565b80601f0160208091040260200160405190810160405280929190818152602001828054610617906122d2565b80156106645780601f1061063957610100808354040283529160200191610664565b820191906000526020600020905b81548152906001019060200180831161064757829003601f168201915b5050505050905090565b600061067982611645565b506000828152600460205260409020546001600160a01b03166105d6565b6106a282823361167e565b5050565b6001600160a01b0382166106d557604051633250574960e11b8152600060048201526024015b60405180910390fd5b60006106e283833361168b565b9050836001600160a01b0316816001600160a01b031614610730576040516364283d7b60e01b81526001600160a01b03808616600483015260248201849052821660448201526064016106cc565b50505050565b6107518383836040518060200160405280600081525061092e565b505050565b60006105d682611645565b6011805461076e906122d2565b80601f016020809104026020016040519081016040528092919081815260200182805461079a906122d2565b80156107e75780601f106107bc576101008083540402835291602001916107e7565b820191906000526020600020905b8154815290600101906020018083116107ca57829003601f168201915b505050505081565b60006001600160a01b03821661081b576040516322718ad960e21b8152600060048201526024016106cc565b506001600160a01b031660009081526003602052604090205490565b61083f611784565b61084960006117b1565b565b6060600180546105eb906122d2565b6106a2338383611803565b61086d611784565b60105462010000900460ff166108d45760405162461bcd60e51b815260206004820152602660248201527f42696c6c4f664c6164696e673a2066756e64696e6720616c72656164792064696044820152651cd8589b195960d21b60648201526084016106cc565b60105460ff16156108f75760405162461bcd60e51b81526004016106cc9061230c565b6010805462ff0000191690556040517f2e8acb0d9d788a0ec57a41bd30f1d7e7e5512ab7ea0b09f526c7745287da001190600090a1565b6109398484846106a6565b610730338585858561189a565b61094e6119c5565b60105460ff16156109715760405162461bcd60e51b81526004016106cc9061230c565b600f546109ce5760405162461bcd60e51b815260206004820152602560248201527f42696c6c4f664c6164696e673a206e6f2072657061796d656e747320617661696044820152646c61626c6560d81b60648201526084016106cc565b600c546001600160a01b03166109f65760405162461bcd60e51b81526004016106cc90612343565b6008546040516370a0823160e01b81523360048201526000916001600160a01b0316906370a0823190602401602060405180830381865afa158015610a3f573d6000803e3d6000fd5b505050506040513d601f19601f82011682018060405250810190610a639190612378565b905060008111610ac55760405162461bcd60e51b815260206004820152602760248201527f42696c6c4f664c6164696e673a206e6f20636c61696d20746f6b656e7320746f6044820152662072656465656d60c81b60648201526084016106cc565b600854604080516318160ddd60e01b815290516000926001600160a01b0316916318160ddd9160048083019260209291908290030181865afa158015610b0f573d6000803e3d6000fd5b505050506040513d601f19601f82011682018060405250810190610b339190612378565b905060008111610b9a5760405162461bcd60e51b815260206004820152602c60248201527f42696c6c4f664c6164696e673a206e6f20636c61696d20746f6b656e7320696e60448201526b1031b4b931bab630ba34b7b760a11b60648201526084016106cc565b600f546000908290610bac90856123a7565b610bb691906123be565b33600090815260126020526040812054919250818311610bd7576000610be1565b610be182846123e0565b905060008111610c335760405162461bcd60e51b815260206004820152601f60248201527f42696c6c4f664c6164696e673a206e6f7468696e6720746f2072656465656d0060448201526064016106cc565b336000818152601260205260409020849055600c546001600160a01b031690610c5e908290846119ef565b600854604051632770a7eb60e21b8152336004820152602481018490526001600160a01b0390911690639dc29fac90604401600060405180830381600087803b158015610caa57600080fd5b505af1158015610cbe573d6000803e3d6000fd5b505060408051858152602081018690523393507f987d620f307ff6b94d58743cb7a7509f24071586a77759b77c2d4e29f75a2f9a92500160405180910390a2600860009054906101000a90046001600160a01b03166001600160a01b03166318160ddd6040518163ffffffff1660e01b8152600401602060405180830381865afa158015610d50573d6000803e3d6000fd5b505050506040513d601f19601f82011682018060405250810190610d749190612378565b600003610d8357610d83611a4e565b5050505050506108496001600755565b610d9b6119c5565b600a546001600160a01b03163314610df55760405162461bcd60e51b815260206004820181905260248201527f42696c6c4f664c6164696e673a206f6e6c792062757965722063616e2070617960448201526064016106cc565b60105460ff1615610e185760405162461bcd60e51b81526004016106cc9061230c565b60008111610e385760405162461bcd60e51b81526004016106cc906123f3565b600c546001600160a01b0316610e605760405162461bcd60e51b81526004016106cc90612343565b600c546001600160a01b0316610e7881333085611ae5565b8160096006016000828254610e8d9190612441565b909155505060405182815233907f737c69225d647e5994eab1a6c301bf6d9232beb2759ae1e27a8966b4732bc4899060200160405180910390a250610ed26001600755565b50565b6010546301000000900460ff1615610f2f5760405162461bcd60e51b815260206004820181905260248201527f42696c6c4f664c6164696e673a204e465420616c7265616479206d696e74656460448201526064016106cc565b600a546001600160a01b03848116911614610f8c5760405162461bcd60e51b815260206004820152601c60248201527f42696c6c4f664c6164696e673a206275796572206d69736d617463680000000060448201526064016106cc565b600b546001600160a01b03838116911614610fe95760405162461bcd60e51b815260206004820152601d60248201527f42696c6c4f664c6164696e673a2073656c6c6572206d69736d6174636800000060448201526064016106cc565b600d5481146110465760405162461bcd60e51b8152602060048201526024808201527f42696c6c4f664c6164696e673a206465636c6172656456616c7565206d69736d6044820152630c2e8c6d60e31b60648201526084016106cc565b600c546001600160a01b031661106e5760405162461bcd60e51b81526004016106cc90612343565b611079306001611b1e565b6010805463ff000000191663010000001790556040516001600160a01b0380841691908516907ff238fcd2133237bc5ae0e1f42086a193f4fddae976468b0797a9260c8f292219906110cf908590601190612454565b60405180910390a3505050565b60606110e782611645565b5060006110ff60408051602081019091526000815290565b9050600081511161111f576040518060200160405280600081525061114a565b8061112984611b83565b60405160200161113a929190612509565b6040516020818303038152906040525b9392505050565b6111596119c5565b60105462010000900460ff166111bb5760405162461bcd60e51b815260206004820152602160248201527f42696c6c4f664c6164696e673a2066756e64696e67206e6f7420656e61626c656044820152601960fa1b60648201526084016106cc565b60105460ff16156111de5760405162461bcd60e51b81526004016106cc9061230c565b600d54600e546111ef908390612441565b11156112525760405162461bcd60e51b815260206004820152602c60248201527f42696c6c4f664c6164696e673a2066756e64696e67206578636565647320646560448201526b636c617265642076616c756560a01b60648201526084016106cc565b600081116112725760405162461bcd60e51b81526004016106cc906123f3565b600c546001600160a01b031661129a5760405162461bcd60e51b81526004016106cc90612343565b600c54600b546001600160a01b03918216916112bb91839133911685611ae5565b6008546040516340c10f1960e01b8152336004820152602481018490526001600160a01b03909116906340c10f1990604401600060405180830381600087803b15801561130757600080fd5b505af115801561131b573d6000803e3d6000fd5b5050505081600960050160008282546113349190612441565b9091555050604080518381526020810184905233917fcd909ec339185c4598a4096e174308fbdf136d117f230960f873a2f2e81f63af910160405180910390a2600d54600e54036113a9576040517ff36efb6fa3e5dc00512e1b052905075cff63f39fd0ba2dcc94d3b56927c1487190600090a15b50610ed26001600755565b6113bc611784565b600c546001600160a01b0316156114215760405162461bcd60e51b8152602060048201526024808201527f42696c6c4f664c6164696e673a20737461626c65636f696e20616c7265616479604482015263081cd95d60e21b60648201526084016106cc565b6001600160a01b03811661148f5760405162461bcd60e51b815260206004820152602f60248201527f42696c6c4f664c6164696e673a20737461626c65636f696e2063616e6e6f742060448201526e6265207a65726f206164647265737360881b60648201526084016106cc565b600c80546001600160a01b0319166001600160a01b0392909216919091179055565b6001600160a01b03918216600090815260056020908152604080832093909416825291909152205460ff1690565b6010546301000000900460ff166115475760405162461bcd60e51b815260206004820152602660248201527f42696c6c4f664c6164696e673a204e4654206d757374206265206d696e74656460448201526508199a5c9cdd60d21b60648201526084016106cc565b601054610100900460ff16156115ab5760405162461bcd60e51b815260206004820152602360248201527f42696c6c4f664c6164696e673a20636c61696d7320616c7265616479206973736044820152621d595960ea1b60648201526084016106cc565b60105460ff16156115ce5760405162461bcd60e51b81526004016106cc9061230c565b6010805462ffff001916620101001790556040517fc9b0a2a786a606c7564c856e06c58d7280f2198c3db6f5966a7b302319a36c8990600090a1565b611612611784565b6001600160a01b03811661163c57604051631e4fbdf760e01b8152600060048201526024016106cc565b610ed2816117b1565b6000818152600260205260408120546001600160a01b0316806105d657604051637e27328960e01b8152600481018490526024016106cc565b6107518383836001611c16565b6000828152600260205260408120546001600160a01b03908116908316156116b8576116b8818486611d1c565b6001600160a01b038116156116f6576116d5600085600080611c16565b6001600160a01b038116600090815260036020526040902080546000190190555b6001600160a01b03851615611725576001600160a01b0385166000908152600360205260409020805460010190555b60008481526002602052604080822080546001600160a01b0319166001600160a01b0389811691821790925591518793918516917fddf252ad1be2c89b69c2b068fc378daa952ba7f163c4a11628f55a4df523b3ef91a4949350505050565b6006546001600160a01b031633146108495760405163118cdaa760e01b81523360048201526024016106cc565b600680546001600160a01b038381166001600160a01b0319831681179093556040519116919082907f8be0079c531659141344cd1fd0a4f28419497f9722a3daafe3b4186f6b6457e090600090a35050565b6001600160a01b03821661183557604051630b61174360e31b81526001600160a01b03831660048201526024016106cc565b6001600160a01b03838116600081815260056020908152604080832094871680845294825291829020805460ff191686151590811790915591519182527f17307eab39ab6107e8899845ad3d59bd9653f200f220920489ca2b5937696c3191016110cf565b6001600160a01b0383163b156119be57604051630a85bd0160e11b81526001600160a01b0384169063150b7a02906118dc908890889087908790600401612538565b6020604051808303816000875af1925050508015611917575060408051601f3d908101601f1916820190925261191491810190612575565b60015b611980573d808015611945576040519150601f19603f3d011682016040523d82523d6000602084013e61194a565b606091505b50805160000361197857604051633250574960e11b81526001600160a01b03851660048201526024016106cc565b805160208201fd5b6001600160e01b03198116630a85bd0160e11b146119bc57604051633250574960e11b81526001600160a01b03851660048201526024016106cc565b505b5050505050565b6002600754036119e857604051633ee5aeb560e01b815260040160405180910390fd5b6002600755565b6040516001600160a01b0383811660248301526044820183905261075191859182169063a9059cbb906064015b604051602081830303815290604052915060e01b6020820180516001600160e01b038381831617835250505050611d80565b60105460ff1615611aa15760405162461bcd60e51b815260206004820152601d60248201527f42696c6c4f664c6164696e673a20616c726561647920736574746c656400000060448201526064016106cc565b6010805460ff19166001908117909155611aba90611df1565b6040517f97088ec3606cfe8cc112180570d03fcde05f9b8e1bfef8e27784eaf5dd5691b690600090a1565b6040516001600160a01b0384811660248301528381166044830152606482018390526107309186918216906323b872dd90608401611a1c565b6001600160a01b038216611b4857604051633250574960e11b8152600060048201526024016106cc565b6000611b568383600061168b565b90506001600160a01b03811615610751576040516339e3563760e11b8152600060048201526024016106cc565b60606000611b9083611e2c565b600101905060008167ffffffffffffffff811115611bb057611bb06120f2565b6040519080825280601f01601f191660200182016040528015611bda576020820181803683370190505b5090508181016020015b600019016f181899199a1a9b1b9c1cb0b131b232b360811b600a86061a8153600a8504945084611be457509392505050565b8080611c2a57506001600160a01b03821615155b15611cec576000611c3a84611645565b90506001600160a01b03831615801590611c665750826001600160a01b0316816001600160a01b031614155b8015611c795750611c7781846114b1565b155b15611ca25760405163a9fbf51f60e01b81526001600160a01b03841660048201526024016106cc565b8115611cea5783856001600160a01b0316826001600160a01b03167f8c5be1e5ebec7d5bd14f71427d1e84f3dd0314c0f7b2291e5b200ac8c7c3b92560405160405180910390a45b505b5050600090815260046020526040902080546001600160a01b0319166001600160a01b0392909216919091179055565b611d27838383611f04565b610751576001600160a01b038316611d5557604051637e27328960e01b8152600481018290526024016106cc565b60405163177e802f60e01b81526001600160a01b0383166004820152602481018290526044016106cc565b600080602060008451602086016000885af180611da3576040513d6000823e3d81fd5b50506000513d91508115611dbb578060011415611dc8565b6001600160a01b0384163b155b1561073057604051635274afe760e01b81526001600160a01b03851660048201526024016106cc565b6000611e00600083600061168b565b90506001600160a01b0381166106a257604051637e27328960e01b8152600481018390526024016106cc565b60008072184f03e93ff9f4daa797ed6e38ed64bf6a1f0160401b8310611e6b5772184f03e93ff9f4daa797ed6e38ed64bf6a1f0160401b830492506040015b6d04ee2d6d415b85acef81000000008310611e97576d04ee2d6d415b85acef8100000000830492506020015b662386f26fc100008310611eb557662386f26fc10000830492506010015b6305f5e1008310611ecd576305f5e100830492506008015b6127108310611ee157612710830492506004015b60648310611ef3576064830492506002015b600a83106105d65760010192915050565b60006001600160a01b03831615801590611f625750826001600160a01b0316846001600160a01b03161480611f3e5750611f3e84846114b1565b80611f6257506000828152600460205260409020546001600160a01b038481169116145b949350505050565b6001600160e01b031981168114610ed257600080fd5b600060208284031215611f9257600080fd5b813561114a81611f6a565b60005b83811015611fb8578181015183820152602001611fa0565b50506000910152565b60008151808452611fd9816020860160208601611f9d565b601f01601f19169290920160200192915050565b60208152600061114a6020830184611fc1565b60006020828403121561201257600080fd5b5035919050565b80356001600160a01b038116811461203057600080fd5b919050565b6000806040838503121561204857600080fd5b61205183612019565b946020939093013593505050565b60008060006060848603121561207457600080fd5b61207d84612019565b925061208b60208501612019565b9150604084013590509250925092565b6000602082840312156120ad57600080fd5b61114a82612019565b600080604083850312156120c957600080fd5b6120d283612019565b9150602083013580151581146120e757600080fd5b809150509250929050565b634e487b7160e01b600052604160045260246000fd5b6000806000806080858703121561211e57600080fd5b61212785612019565b935061213560208601612019565b925060408501359150606085013567ffffffffffffffff8082111561215957600080fd5b818701915087601f83011261216d57600080fd5b81358181111561217f5761217f6120f2565b604051601f8201601f19908116603f011681019083821181831017156121a7576121a76120f2565b816040528281528a60208487010111156121c057600080fd5b82602086016020830137600060208483010152809550505050505092959194509250565b81518152602080830151610160830191612208908401826001600160a01b03169052565b50604083015161222360408401826001600160a01b03169052565b50606083015161223e60608401826001600160a01b03169052565b506080830151608083015260a083015160a083015260c083015160c083015260e083015161227060e084018215159052565b506101008381015115159083015261012080840151151590830152610140928301511515929091019190915290565b600080604083850312156122b257600080fd5b6122bb83612019565b91506122c960208401612019565b90509250929050565b600181811c908216806122e657607f821691505b60208210810361230657634e487b7160e01b600052602260045260246000fd5b50919050565b6020808252601e908201527f42696c6c4f664c6164696e673a20747261646520697320736574746c65640000604082015260600190565b6020808252818101527f42696c6c4f664c6164696e673a20737461626c65636f696e206e6f7420736574604082015260600190565b60006020828403121561238a57600080fd5b5051919050565b634e487b7160e01b600052601160045260246000fd5b80820281158282048414176105d6576105d6612391565b6000826123db57634e487b7160e01b600052601260045260246000fd5b500490565b818103818111156105d6576105d6612391565b6020808252602e908201527f42696c6c4f664c6164696e673a20616d6f756e74206d7573742062652067726560408201526d61746572207468616e207a65726f60901b606082015260800190565b808201808211156105d6576105d6612391565b828152600060206040818401526000845481600182811c91508083168061247c57607f831692505b858310810361249957634e487b7160e01b85526022600452602485fd5b60408801839052606088018180156124b857600181146124ce576124f9565b60ff198616825284151560051b820196506124f9565b60008b81526020902060005b868110156124f3578154848201529085019089016124da565b83019750505b50949a9950505050505050505050565b6000835161251b818460208801611f9d565b83519083019061252f818360208801611f9d565b01949350505050565b6001600160a01b038581168252841660208201526040810183905260806060820181905260009061256b90830184611fc1565b9695505050505050565b60006020828403121561258757600080fd5b815161114a81611f6a56fea26469706673582212209f9dcf5b2beb0466ac34ecb5afc886d348795d7266db36d75ba4397aada6fb6164736f6c6343000814003360a06040523480156200001157600080fd5b5060405162000cf738038062000cf7833981016040819052620000349162000137565b81604051806040016040528060118152602001702a3930b2329021b630b4b6902a37b5b2b760791b81525060405180604001604052806005815260200164434c41494d60d81b81525081600390816200008e919062000218565b5060046200009d828262000218565b5050506001600160a01b038116620000cf57604051631e4fbdf760e01b81526000600482015260240160405180910390fd5b620000da81620000e5565b5060805250620002e4565b600580546001600160a01b038381166001600160a01b0319831681179093556040519116919082907f8be0079c531659141344cd1fd0a4f28419497f9722a3daafe3b4186f6b6457e090600090a35050565b600080604083850312156200014b57600080fd5b82516001600160a01b03811681146200016357600080fd5b6020939093015192949293505050565b634e487b7160e01b600052604160045260246000fd5b600181811c908216806200019e57607f821691505b602082108103620001bf57634e487b7160e01b600052602260045260246000fd5b50919050565b601f8211156200021357600081815260208120601f850160051c81016020861015620001ee5750805b601f850160051c820191505b818110156200020f57828155600101620001fa565b5050505b505050565b81516001600160401b0381111562000234576200023462000173565b6200024c8162000245845462000189565b84620001c5565b602080601f8311600181146200028457600084156200026b5750858301515b600019600386901b1c1916600185901b1785556200020f565b600085815260208120601f198616915b82811015620002b55788860151825594840194600190910190840162000294565b5085821015620002d45787850151600019600388901b60f8161c191681555b5050505050600190811b01905550565b6080516109f06200030760003960008181610203015261034b01526109f06000f3fe608060405234801561001057600080fd5b50600436106100f55760003560e01c8063715018a611610097578063a9059cbb11610066578063a9059cbb146101eb578063d5abeb01146101fe578063dd62ed3e14610225578063f2fde38b1461025e57600080fd5b8063715018a6146101ad5780638da5cb5b146101b557806395d89b41146101d05780639dc29fac146101d857600080fd5b806323b872dd116100d357806323b872dd1461014d578063313ce5671461016057806340c10f191461016f57806370a082311461018457600080fd5b806306fdde03146100fa578063095ea7b31461011857806318160ddd1461013b575b600080fd5b610102610271565b60405161010f919061083a565b60405180910390f35b61012b6101263660046108a4565b610303565b604051901515815260200161010f565b6002545b60405190815260200161010f565b61012b61015b3660046108ce565b61031d565b6040516012815260200161010f565b61018261017d3660046108a4565b610341565b005b61013f61019236600461090a565b6001600160a01b031660009081526020819052604090205490565b6101826103df565b6005546040516001600160a01b03909116815260200161010f565b6101026103f3565b6101826101e63660046108a4565b610402565b61012b6101f93660046108a4565b610414565b61013f7f000000000000000000000000000000000000000000000000000000000000000081565b61013f61023336600461092c565b6001600160a01b03918216600090815260016020908152604080832093909416825291909152205490565b61018261026c36600461090a565b610422565b6060600380546102809061095f565b80601f01602080910402602001604051908101604052809291908181526020018280546102ac9061095f565b80156102f95780601f106102ce576101008083540402835291602001916102f9565b820191906000526020600020905b8154815290600101906020018083116102dc57829003601f168201915b5050505050905090565b600033610311818585610460565b60019150505b92915050565b60003361032b858285610472565b6103368585856104f1565b506001949350505050565b610349610550565b7f00000000000000000000000000000000000000000000000000000000000000008161037460025490565b61037e9190610999565b11156103d15760405162461bcd60e51b815260206004820152601e60248201527f436c61696d546f6b656e3a2065786365656473206d617820737570706c79000060448201526064015b60405180910390fd5b6103db828261057d565b5050565b6103e7610550565b6103f160006105b3565b565b6060600480546102809061095f565b61040a610550565b6103db8282610605565b6000336103118185856104f1565b61042a610550565b6001600160a01b03811661045457604051631e4fbdf760e01b8152600060048201526024016103c8565b61045d816105b3565b50565b61046d838383600161063b565b505050565b6001600160a01b038381166000908152600160209081526040808320938616835292905220546000198110156104eb57818110156104dc57604051637dc7a0d960e11b81526001600160a01b038416600482015260248101829052604481018390526064016103c8565b6104eb8484848403600061063b565b50505050565b6001600160a01b03831661051b57604051634b637e8f60e11b8152600060048201526024016103c8565b6001600160a01b0382166105455760405163ec442f0560e01b8152600060048201526024016103c8565b61046d838383610710565b6005546001600160a01b031633146103f15760405163118cdaa760e01b81523360048201526024016103c8565b6001600160a01b0382166105a75760405163ec442f0560e01b8152600060048201526024016103c8565b6103db60008383610710565b600580546001600160a01b038381166001600160a01b0319831681179093556040519116919082907f8be0079c531659141344cd1fd0a4f28419497f9722a3daafe3b4186f6b6457e090600090a35050565b6001600160a01b03821661062f57604051634b637e8f60e11b8152600060048201526024016103c8565b6103db82600083610710565b6001600160a01b0384166106655760405163e602df0560e01b8152600060048201526024016103c8565b6001600160a01b03831661068f57604051634a1406b160e11b8152600060048201526024016103c8565b6001600160a01b03808516600090815260016020908152604080832093871683529290522082905580156104eb57826001600160a01b0316846001600160a01b03167f8c5be1e5ebec7d5bd14f71427d1e84f3dd0314c0f7b2291e5b200ac8c7c3b9258460405161070291815260200190565b60405180910390a350505050565b6001600160a01b03831661073b5780600260008282546107309190610999565b909155506107ad9050565b6001600160a01b0383166000908152602081905260409020548181101561078e5760405163391434e360e21b81526001600160a01b038516600482015260248101829052604481018390526064016103c8565b6001600160a01b03841660009081526020819052604090209082900390555b6001600160a01b0382166107c9576002805482900390556107e8565b6001600160a01b03821660009081526020819052604090208054820190555b816001600160a01b0316836001600160a01b03167fddf252ad1be2c89b69c2b068fc378daa952ba7f163c4a11628f55a4df523b3ef8360405161082d91815260200190565b60405180910390a3505050565b600060208083528351808285015260005b818110156108675785810183015185820160400152820161084b565b506000604082860101526040601f19601f8301168501019250505092915050565b80356001600160a01b038116811461089f57600080fd5b919050565b600080604083850312156108b757600080fd5b6108c083610888565b946020939093013593505050565b6000806000606084860312156108e357600080fd5b6108ec84610888565b92506108fa60208501610888565b9150604084013590509250925092565b60006020828403121561091c57600080fd5b61092582610888565b9392505050565b6000806040838503121561093f57600080fd5b61094883610888565b915061095660208401610888565b90509250929050565b600181811c9082168061097357607f821691505b60208210810361099357634e487b7160e01b600052602260045260246000fd5b50919050565b8082018082111561031757634e487b7160e01b600052601160045260246000fdfea2646970667358221220cf34a6a0d4b75396185e63030ded8139b09b5d14f6b6a62410f7b985dc48298a64736f6c63430008140033",
  "linkReferences": {},
  "deployedLinkReferences": {}
}