{
  "_format": "hh-sol-artifact-1",
  "contractName": "BillOfLading",
  "sourceName": "contracts/BillOfLading.sol",
  "abi": [
    {
      "inputs": [
        {
          "internalType": "bytes32",
          "name": "bolHash",
          "type": "bytes32"
        },
        {
          "internalType": "address",
          "name": "seller",
          "type": "address"
        },
        {
          "internalType": "address",
          "name": "buyer",
          "type": "address"
        },
        {
          "internalType": "uint256",
          "name": "declaredValue",
          "type": "uint256"
        },
        {
          "internalType": "string",
          "name": "_blNumber",
          "type": "string"
        }
      ],
      "stateMutability": "nonpayable",
      "type": "constructor"
    },
    {
      "inputs": [
        {
          "internalType": "address",
          "name": "sender",
          "type": "address"
        },
        {
          "internalType": "uint256",
          "name": "tokenId",
          "type": "uint256"
        },
        {
          "internalType": "address",
          "name": "owner",
          "type": "address"
        }
      ],
      "name": "ERC721IncorrectOwner",
      "type": "error"
    },
    {
      "inputs": [
        {
          "internalType": "address",
          "name": "operator",
          "type": "address"
        },
        {
          "internalType": "uint256",
          "name": "tokenId",
          "type": "uint256"
        }
      ],
      "name": "ERC721InsufficientApproval",
      "type": "error"
    },
    {
      "inputs": [
        {
          "internalType": "address",
          "name": "approver",
          "type": "address"
        }
      ],
      "name": "ERC721InvalidApprover",
      "type": "error"
    },
    {
      "inputs": [
        {
          "internalType": "address",
          "name": "operator",
          "type": "address"
        }
      ],
      "name": "ERC721InvalidOperator",
      "type": "error"
    },
    {
      "inputs": [
        {
          "internalType": "address",
          "name": "owner",
          "type": "address"
        }
      ],
      "name": "ERC721InvalidOwner",
      "type": "error"
    },
    {
      "inputs": [
        {
          "internalType": "address",
          "name": "receiver",
          "type": "address"
        }
      ],
      "name": "ERC721InvalidReceiver",
      "type": "error"
    },
    {
      "inputs": [
        {
          "internalType": "address",
          "name": "sender",
          "type": "address"
        }
      ],
      "name": "ERC721InvalidSender",
      "type": "error"
    },
    {
      "inputs": [
        {
          "internalType": "uint256",
          "name": "tokenId",
          "type": "uint256"
        }
      ],
      "name": "ERC721NonexistentToken",
      "type": "error"
    },
    {
      "inputs": [
        {
          "internalType": "address",
          "name": "owner",
          "type": "address"
        }
      ],
      "name": "OwnableInvalidOwner",
      "type": "error"
    },
    {
      "inputs": [
        {
          "internalType": "address",
          "name": "account",
          "type": "address"
        }
      ],
      "name": "OwnableUnauthorizedAccount",
      "type": "error"
    },
    {
      "inputs": [],
      "name": "ReentrancyGuardReentrantCall",
      "type": "error"
    },
    {
      "inputs": [
        {
          "internalType": "address",
          "name": "token",
          "type": "address"
        }
      ],
      "name": "SafeERC20FailedOperation",
      "type": "error"
    },
    {
      "anonymous": false,
      "inputs": [],
      "name": "Active",
      "type": "event"
    },
    {
      "anonymous": false,
      "inputs": [
        {
          "indexed": true,
          "internalType": "address",
          "name": "owner",
          "type": "address"
        },
        {
          "indexed": true,
          "internalType": "address",
          "name": "approved",
          "type": "address"
        },
        {
          "indexed": true,
          "internalType": "uint256",
          "name": "tokenId",
          "type": "uint256"
        }
      ],
      "name": "Approval",
      "type": "event"
    },
    {
      "anonymous": false,
      "inputs": [
        {
          "indexed": true,
          "internalType": "address",
          "name": "owner",
          "type": "address"
        },
        {
          "indexed": true,
          "internalType": "address",
          "name": "operator",
          "type": "address"
        },
        {
          "indexed": false,
          "internalType": "bool",
          "name": "approved",
          "type": "bool"
        }
      ],
      "name": "ApprovalForAll",
      "type": "event"
    },
    {
      "anonymous": false,
      "inputs": [
        {
          "indexed": true,
          "internalType": "address",
          "name": "holder",
          "type": "address"
        },
        {
          "indexed": false,
          "internalType": "uint256",
          "name": "amount",
          "type": "uint256"
        },
        {
          "indexed": false,
          "internalType": "uint256",
          "name": "claimTokensBurned",
          "type": "uint256"
        }
      ],
      "name": "Claimed",
      "type": "event"
    },
    {
      "anonymous": false,
      "inputs": [
        {
          "indexed": true,
          "internalType": "address",
          "name": "buyer",
          "type": "address"
        },
        {
          "indexed": true,
          "internalType": "address",
          "name": "seller",
          "type": "address"
        },
        {
          "indexed": false,
          "internalType": "uint256",
          "name": "declaredValue",
          "type": "uint256"
        },
        {
          "indexed": false,
          "internalType": "string",
          "name": "blNumber",
          "type": "string"
        }
      ],
      "name": "Created",
      "type": "event"
    },
    {
      "anonymous": false,
      "inputs": [],
      "name": "Full",
      "type": "event"
    },
    {
      "anonymous": false,
      "inputs": [
        {
          "indexed": true,
          "internalType": "address",
          "name": "investor",
          "type": "address"
        },
        {
          "indexed": false,
          "internalType": "uint256",
          "name": "amount",
          "type": "uint256"
        },
        {
          "indexed": false,
          "internalType": "uint256",
          "name": "claimTokens",
          "type": "uint256"
        },
        {
          "indexed": false,
          "internalType": "uint256",
          "name": "interestRateBps",
          "type": "uint256"
        }
      ],
      "name": "Funded",
      "type": "event"
    },
    {
      "anonymous": false,
      "inputs": [],
      "name": "Inactive",
      "type": "event"
    },
    {
      "anonymous": false,
      "inputs": [
        {
          "indexed": true,
          "internalType": "address",
          "name": "investor",
          "type": "address"
        },
        {
          "indexed": false,
          "internalType": "uint256",
          "name": "amount",
          "type": "uint256"
        },
        {
          "indexed": false,
          "internalType": "uint256",
          "name": "interestRateBps",
          "type": "uint256"
        },
        {
          "indexed": false,
          "internalType": "uint256",
          "name": "offerId",
          "type": "uint256"
        }
      ],
      "name": "Offer",
      "type": "event"
    },
    {
      "anonymous": false,
      "inputs": [
        {
          "indexed": true,
          "internalType": "address",
          "name": "investor",
          "type": "address"
        },
        {
          "indexed": false,
          "internalType": "uint256",
          "name": "amount",
          "type": "uint256"
        },
        {
          "indexed": false,
          "internalType": "uint256",
          "name": "claimTokens",
          "type": "uint256"
        },
        {
          "indexed": false,
          "internalType": "uint256",
          "name": "interestRateBps",
          "type": "uint256"
        },
        {
          "indexed": false,
          "internalType": "uint256",
          "name": "offerId",
          "type": "uint256"
        }
      ],
      "name": "OfferAccepted",
      "type": "event"
    },
    {
      "anonymous": false,
      "inputs": [
        {
          "indexed": true,
          "internalType": "address",
          "name": "previousOwner",
          "type": "address"
        },
        {
          "indexed": true,
          "internalType": "address",
          "name": "newOwner",
          "type": "address"
        }
      ],
      "name": "OwnershipTransferred",
      "type": "event"
    },
    {
      "anonymous": false,
      "inputs": [
        {
          "indexed": true,
          "internalType": "address",
          "name": "buyer",
          "type": "address"
        },
        {
          "indexed": false,
          "internalType": "uint256",
          "name": "amount",
          "type": "uint256"
        }
      ],
      "name": "Paid",
      "type": "event"
    },
    {
      "anonymous": false,
      "inputs": [
        {
          "indexed": true,
          "internalType": "address",
          "name": "buyer",
          "type": "address"
        },
        {
          "indexed": false,
          "internalType": "uint256",
          "name": "amount",
          "type": "uint256"
        }
      ],
      "name": "Refunded",
      "type": "event"
    },
    {
      "anonymous": false,
      "inputs": [],
      "name": "Settled",
      "type": "event"
    },
    {
      "anonymous": false,
      "inputs": [
        {
          "indexed": true,
          "internalType": "address",
          "name": "from",
          "type": "address"
        },
        {
          "indexed": true,
          "internalType": "address",
          "name": "to",
          "type": "address"
        },
        {
          "indexed": true,
          "internalType": "uint256",
          "name": "tokenId",
          "type": "uint256"
        }
      ],
      "name": "Transfer",
      "type": "event"
    },
    {
      "inputs": [],
      "name": "BOL_TOKEN_ID",
      "outputs": [
        {
          "internalType": "uint256",
          "name": "",
          "type": "uint256"
        }
      ],
      "stateMutability": "view",
      "type": "function"
    },
    {
      "inputs": [
        {
          "internalType": "uint256",
          "name": "offerId",
          "type": "uint256"
        }
      ],
      "name": "acceptOffer",
      "outputs": [],
      "stateMutability": "nonpayable",
      "type": "function"
    },
    {
      "inputs": [
        {
          "internalType": "address",
          "name": "to",
          "type": "address"
        },
        {
          "internalType": "uint256",
          "name": "tokenId",
          "type": "uint256"
        }
      ],
      "name": "approve",
      "outputs": [],
      "stateMutability": "nonpayable",
      "type": "function"
    },
    {
      "inputs": [
        {
          "internalType": "address",
          "name": "owner",
          "type": "address"
        }
      ],
      "name": "balanceOf",
      "outputs": [
        {
          "internalType": "uint256",
          "name": "",
          "type": "uint256"
        }
      ],
      "stateMutability": "view",
      "type": "function"
    },
    {
      "inputs": [],
      "name": "blNumber",
      "outputs": [
        {
          "internalType": "string",
          "name": "",
          "type": "string"
        }
      ],
      "stateMutability": "view",
      "type": "function"
    },
    {
      "inputs": [],
      "name": "claimToken",
      "outputs": [
        {
          "internalType": "contract ClaimToken",
          "name": "",
          "type": "address"
        }
      ],
      "stateMutability": "view",
      "type": "function"
    },
    {
      "inputs": [
        {
          "internalType": "uint256",
          "name": "tokenId",
          "type": "uint256"
        }
      ],
      "name": "getApproved",
      "outputs": [
        {
          "internalType": "address",
          "name": "",
          "type": "address"
        }
      ],
      "stateMutability": "view",
      "type": "function"
    },
    {
      "inputs": [],
      "name": "getTradeState",
      "outputs": [
        {
          "components": [
            {
              "internalType": "bytes32",
              "name": "bolHash",
              "type": "bytes32"
            },
            {
              "internalType": "address",
              "name": "buyer",
              "type": "address"
            },
            {
              "internalType": "address",
              "name": "seller",
              "type": "address"
            },
            {
              "internalType": "address",
              "name": "stablecoin",
              "type": "address"
            },
            {
              "internalType": "uint256",
              "name": "declaredValue",
              "type": "uint256"
            },
            {
              "internalType": "uint256",
              "name": "totalFunded",
              "type": "uint256"
            },
            {
              "internalType": "uint256",
              "name": "totalPaid",
              "type": "uint256"
            },
            {
              "internalType": "uint256",
              "name": "totalRepaid",
              "type": "uint256"
            },
            {
              "internalType": "bool",
              "name": "settled",
              "type": "bool"
            },
            {
              "internalType": "bool",
              "name": "claimsIssued",
              "type": "bool"
            },
            {
              "internalType": "bool",
              "name": "fundingEnabled",
              "type": "bool"
            },
            {
              "internalType": "bool",
              "name": "nftMinted",
              "type": "bool"
            }
          ],
          "internalType": "struct BillOfLading.TradeState",
          "name": "state",
          "type": "tuple"
        }
      ],
      "stateMutability": "view",
      "type": "function"
    },
    {
      "inputs": [
        {
          "internalType": "address",
          "name": "owner",
          "type": "address"
        },
        {
          "internalType": "address",
          "name": "operator",
          "type": "address"
        }
      ],
      "name": "isApprovedForAll",
      "outputs": [
        {
          "internalType": "bool",
          "name": "",
          "type": "bool"
        }
      ],
      "stateMutability": "view",
      "type": "function"
    },
    {
      "inputs": [],
      "name": "issueClaims",
      "outputs": [],
      "stateMutability": "nonpayable",
      "type": "function"
    },
    {
      "inputs": [
        {
          "internalType": "address",
          "name": "buyer",
          "type": "address"
        },
        {
          "internalType": "address",
          "name": "seller",
          "type": "address"
        },
        {
          "internalType": "uint256",
          "name": "declaredValue",
          "type": "uint256"
        }
      ],
      "name": "mint",
      "outputs": [],
      "stateMutability": "nonpayable",
      "type": "function"
    },
    {
      "inputs": [],
      "name": "name",
      "outputs": [
        {
          "internalType": "string",
          "name": "",
          "type": "string"
        }
      ],
      "stateMutability": "view",
      "type": "function"
    },
    {
      "inputs": [],
      "name": "nextOfferId",
      "outputs": [
        {
          "internalType": "uint256",
          "name": "",
          "type": "uint256"
        }
      ],
      "stateMutability": "view",
      "type": "function"
    },
    {
      "inputs": [
        {
          "internalType": "uint256",
          "name": "amount",
          "type": "uint256"
        },
        {
          "internalType": "uint256",
          "name": "interestRateBps",
          "type": "uint256"
        }
      ],
      "name": "offer",
      "outputs": [
        {
          "internalType": "uint256",
          "name": "",
          "type": "uint256"
        }
      ],
      "stateMutability": "nonpayable",
      "type": "function"
    },
    {
      "inputs": [
        {
          "internalType": "uint256",
          "name": "",
          "type": "uint256"
        }
      ],
      "name": "offers",
      "outputs": [
        {
          "internalType": "address",
          "name": "investor",
          "type": "address"
        },
        {
          "internalType": "uint256",
          "name": "amount",
          "type": "uint256"
        },
        {
          "internalType": "uint256",
          "name": "interestRateBps",
          "type": "uint256"
        },
        {
          "internalType": "bool",
          "name": "accepted",
          "type": "bool"
        }
      ],
      "stateMutability": "view",
      "type": "function"
    },
    {
      "inputs": [],
      "name": "owner",
      "outputs": [
        {
          "internalType": "address",
          "name": "",
          "type": "address"
        }
      ],
      "stateMutability": "view",
      "type": "function"
    },
    {
      "inputs": [
        {
          "internalType": "uint256",
          "name": "tokenId",
          "type": "uint256"
        }
      ],
      "name": "ownerOf",
      "outputs": [
        {
          "internalType": "address",
          "name": "",
          "type": "address"
        }
      ],
      "stateMutability": "view",
      "type": "function"
    },
    {
      "inputs": [
        {
          "internalType": "uint256",
          "name": "amount",
          "type": "uint256"
        }
      ],
      "name": "pay",
      "outputs": [],
      "stateMutability": "nonpayable",
      "type": "function"
    },
    {
      "inputs": [],
      "name": "redeem",
      "outputs": [],
      "stateMutability": "nonpayable",
      "type": "function"
    },
    {
      "inputs": [
        {
          "internalType": "address",
          "name": "",
          "type": "address"
        }
      ],
      "name": "redeemedAmounts",
      "outputs": [
        {
          "internalType": "uint256",
          "name": "",
          "type": "uint256"
        }
      ],
      "stateMutability": "view",
      "type": "function"
    },
    {
      "inputs": [],
      "name": "refundBuyer",
      "outputs": [],
      "stateMutability": "nonpayable",
      "type": "function"
    },
    {
      "inputs": [],
      "name": "renounceOwnership",
      "outputs": [],
      "stateMutability": "nonpayable",
      "type": "function"
    },
    {
      "inputs": [
        {
          "internalType": "address",
          "name": "from",
          "type": "address"
        },
        {
          "internalType": "address",
          "name": "to",
          "type": "address"
        },
        {
          "internalType": "uint256",
          "name": "tokenId",
          "type": "uint256"
        }
      ],
      "name": "safeTransferFrom",
      "outputs": [],
      "stateMutability": "nonpayable",
      "type": "function"
    },
    {
      "inputs": [
        {
          "internalType": "address",
          "name": "from",
          "type": "address"
        },
        {
          "internalType": "address",
          "name": "to",
          "type": "address"
        },
        {
          "internalType": "uint256",
          "name": "tokenId",
          "type": "uint256"
        },
        {
          "internalType": "bytes",
          "name": "data",
          "type": "bytes"
        }
      ],
      "name": "safeTransferFrom",
      "outputs": [],
      "stateMutability": "nonpayable",
      "type": "function"
    },
    {
      "inputs": [
        {
          "internalType": "address",
          "name": "operator",
          "type": "address"
        },
        {
          "internalType": "bool",
          "name": "approved",
          "type": "bool"
        }
      ],
      "name": "setApprovalForAll",
      "outputs": [],
      "stateMutability": "nonpayable",
      "type": "function"
    },
    {
      "inputs": [
        {
          "internalType": "address",
          "name": "stablecoin",
          "type": "address"
        }
      ],
      "name": "setStablecoin",
      "outputs": [],
      "stateMutability": "nonpayable",
      "type": "function"
    },
    {
      "inputs": [
        {
          "internalType": "bytes4",
          "name": "interfaceId",
          "type": "bytes4"
        }
      ],
      "name": "supportsInterface",
      "outputs": [
        {
          "internalType": "bool",
          "name": "",
          "type": "bool"
        }
      ],
      "stateMutability": "view",
      "type": "function"
    },
    {
      "inputs": [],
      "name": "surrender",
      "outputs": [],
      "stateMutability": "nonpayable",
      "type": "function"
    },
    {
      "inputs": [],
      "name": "symbol",
      "outputs": [
        {
          "internalType": "string",
          "name": "",
          "type": "string"
        }
      ],
      "stateMutability": "view",
      "type": "function"
    },
    {
      "inputs": [
        {
          "internalType": "uint256",
          "name": "tokenId",
          "type": "uint256"
        }
      ],
      "name": "tokenURI",
      "outputs": [
        {
          "internalType": "string",
          "name": "",
          "type": "string"
        }
      ],
      "stateMutability": "view",
      "type": "function"
    },
    {
      "inputs": [],
      "name": "tradeState",
      "outputs": [
        {
          "internalType": "bytes32",
          "name": "bolHash",
          "type": "bytes32"
        },
        {
          "internalType": "address",
          "name": "buyer",
          "type": "address"
        },
        {
          "internalType": "address",
          "name": "seller",
          "type": "address"
        },
        {
          "internalType": "address",
          "name": "stablecoin",
          "type": "address"
        },
        {
          "internalType": "uint256",
          "name": "declaredValue",
          "type": "uint256"
        },
        {
          "internalType": "uint256",
          "name": "totalFunded",
          "type": "uint256"
        },
        {
          "internalType": "uint256",
          "name": "totalPaid",
          "type": "uint256"
        },
        {
          "internalType": "uint256",
          "name": "totalRepaid",
          "type": "uint256"
        },
        {
          "internalType": "bool",
          "name": "settled",
          "type": "bool"
        },
        {
          "internalType": "bool",
          "name": "claimsIssued",
          "type": "bool"
        },
        {
          "internalType": "bool",
          "name": "fundingEnabled",
          "type": "bool"
        },
        {
          "internalType": "bool",
          "name": "nftMinted",
          "type": "bool"
        }
      ],
      "stateMutability": "view",
      "type": "function"
    },
    {
      "inputs": [
        {
          "internalType": "address",
          "name": "from",
          "type": "address"
        },
        {
          "internalType": "address",
          "name": "to",
          "type": "address"
        },
        {
          "internalType": "uint256",
          "name": "tokenId",
          "type": "uint256"
        }
      ],
      "name": "transferFrom",
      "outputs": [],
      "stateMutability": "nonpayable",
      "type": "function"
    },
    {
      "inputs": [
        {
          "internalType": "address",
          "name": "newOwner",
          "type": "address"
        }
      ],
      "name": "transferOwnership",
      "outputs": [],
      "stateMutability": "nonpayable",
      "type": "function"
    }
  ],
  "bytecode": "0x60806040523480156200001157600080fd5b5060405162004189380380620041898339810160408190526200003491620003fa565b336040518060400160405280600e81526020016d42696c6c206f66204c6164696e6760901b815250604051806040016040528060038152602001621093d360ea1b815250816000908162000089919062000597565b50600162000098828262000597565b5050506001600160a01b038116620000cb57604051631e4fbdf760e01b8152600060048201526024015b60405180910390fd5b620000d68162000367565b5060016007556001600160a01b038416620001485760405162461bcd60e51b815260206004820152602b60248201527f42696c6c4f664c6164696e673a2073656c6c65722063616e6e6f74206265207a60448201526a65726f206164647265737360a81b6064820152608401620000c2565b6001600160a01b038316620001b35760405162461bcd60e51b815260206004820152602a60248201527f42696c6c4f664c6164696e673a2062757965722063616e6e6f74206265207a65604482015269726f206164647265737360b01b6064820152608401620000c2565b600082116200022b5760405162461bcd60e51b815260206004820152603660248201527f42696c6c4f664c6164696e673a206465636c617265642076616c7565206d757360448201527f742062652067726561746572207468616e207a65726f000000000000000000006064820152608401620000c2565b60408051610180810182528681526001600160a01b03808616602083018190529087169282018390526000606083018190526080830186905260a0830181905260c0830181905260e083018190526101008301819052610120830181905261014083018190526101609092018290526009889055600a80546001600160a01b03199081169092179055600b80548216909317909255600c8054909216909155600d839055600e819055600f8190556010556011805463ffffffff191690556014620002f7828262000597565b5030826040516200030890620003b9565b6001600160a01b0390921682526020820152604001604051809103906000f0801580156200033a573d6000803e3d6000fd5b50600880546001600160a01b0319166001600160a01b039290921691909117905550620006639350505050565b600680546001600160a01b038381166001600160a01b0319831681179093556040519116919082907f8be0079c531659141344cd1fd0a4f28419497f9722a3daafe3b4186f6b6457e090600090a35050565b610cf7806200349283390190565b80516001600160a01b0381168114620003df57600080fd5b919050565b634e487b7160e01b600052604160045260246000fd5b600080600080600060a086880312156200041357600080fd5b85519450602062000426818801620003c7565b94506200043660408801620003c7565b6060880151608089015191955093506001600160401b03808211156200045b57600080fd5b818901915089601f8301126200047057600080fd5b815181811115620004855762000485620003e4565b604051601f8201601f19908116603f01168101908382118183101715620004b057620004b0620003e4565b816040528281528c86848701011115620004c957600080fd5b600093505b82841015620004ed5784840186015181850187015292850192620004ce565b60008684830101528096505050505050509295509295909350565b600181811c908216806200051d57607f821691505b6020821081036200053e57634e487b7160e01b600052602260045260246000fd5b50919050565b601f8211156200059257600081815260208120601f850160051c810160208610156200056d5750805b601f850160051c820191505b818110156200058e5782815560010162000579565b5050505b505050565b81516001600160401b03811115620005b357620005b3620003e4565b620005cb81620005c4845462000508565b8462000544565b602080601f831160018114620006035760008415620005ea5750858301515b600019600386901b1c1916600185901b1785556200058e565b600085815260208120601f198616915b82811015620006345788860151825594840194600190910190840162000613565b5085821015620006535787850151600019600388901b60f8161c191681555b5050505050600190811b01905550565b612e1f80620006736000396000f3fe608060405234801561001057600080fd5b50600436106101fb5760003560e01c806395d89b411161011a578063c6c3bbe6116100ad578063e088bfc01161007c578063e088bfc01461061c578063e8a61cc81461062f578063e985e9c514610637578063ecfda4861461064a578063f2fde38b1461065257600080fd5b8063c6c3bbe6146105db578063c815729d146105ee578063c87b56dd14610601578063ca7957381461061457600080fd5b8063b88d4fde116100e9578063b88d4fde1461049d578063be040fb0146104b0578063be43bef5146104b8578063c290d691146105c857600080fd5b806395d89b4114610467578063a19205861461046f578063a22cb46514610482578063b71c47a21461049557600080fd5b80635f5d065511610192578063715018a611610161578063715018a61461031b578063864e1827146103235780638a72ea6a146103e85780638da5cb5b1461045657600080fd5b80635f5d0655146102e45780636352211e146102ed5780636e826e0e1461030057806370a082311461030857600080fd5b806323b872dd116101ce57806323b872dd1461027d57806334600f9d1461029057806342842e0e146102be5780634451d89f146102d157600080fd5b806301ffc9a71461020057806306fdde0314610228578063081812fc1461023d578063095ea7b314610268575b600080fd5b61021361020e36600461274f565b610665565b60405190151581526020015b60405180910390f35b6102306106b7565b60405161021f91906127bc565b61025061024b3660046127cf565b610749565b6040516001600160a01b03909116815260200161021f565b61027b610276366004612804565b610772565b005b61027b61028b36600461282e565b610781565b6102b061029e36600461286a565b60156020526000908152604090205481565b60405190815260200161021f565b61027b6102cc36600461282e565b610811565b600854610250906001600160a01b031681565b6102b060135481565b6102506102fb3660046127cf565b610831565b61023061083c565b6102b061031636600461286a565b6108ca565b61027b610912565b600954600a54600b54600c54600d54600e54600f5460105460115461037a98976001600160a01b039081169781169616949392919060ff80821691610100810482169162010000820481169163010000009004168c565b604080519c8d526001600160a01b039b8c1660208e0152998b16998c01999099529890961660608a0152608089019490945260a088019290925260c087015260e08601521515610100850152151561012084015290151561014083015215156101608201526101800161021f565b61042a6103f63660046127cf565b60126020526000908152604090208054600182015460028301546003909301546001600160a01b0390921692909160ff1684565b604080516001600160a01b0390951685526020850193909352918301521515606082015260800161021f565b6006546001600160a01b0316610250565b610230610926565b6102b061047d366004612885565b610935565b61027b6104903660046128a7565b610b1c565b61027b610b27565b61027b6104ab3660046128f9565b610c4e565b61027b610c66565b6105bb6040805161018081018252600080825260208201819052918101829052606081018290526080810182905260a0810182905260c0810182905260e081018290526101008101829052610120810182905261014081018290526101608101919091525060408051610180810182526009548152600a546001600160a01b039081166020830152600b54811692820192909252600c549091166060820152600d546080820152600e5460a0820152600f5460c082015260105460e082015260115460ff80821615156101008085019190915282048116151561012084015262010000820481161515610140840152630100000090910416151561016082015290565b60405161021f91906129d5565b61027b6105d63660046127cf565b611107565b61027b6105e936600461282e565b611249565b61027b6105fc3660046127cf565b611450565b61023061060f3660046127cf565b611829565b6102b0600181565b61027b61062a36600461286a565b61189e565b61027b61199b565b610213610645366004612a9c565b611c80565b61027b611cae565b61027b61066036600461286a565b611dd9565b60006001600160e01b031982166380ac58cd60e01b148061069657506001600160e01b03198216635b5e139f60e01b145b806106b157506301ffc9a760e01b6001600160e01b03198316145b92915050565b6060600080546106c690612acf565b80601f01602080910402602001604051908101604052809291908181526020018280546106f290612acf565b801561073f5780601f106107145761010080835404028352916020019161073f565b820191906000526020600020905b81548152906001019060200180831161072257829003601f168201915b5050505050905090565b600061075482611e14565b506000828152600460205260409020546001600160a01b03166106b1565b61077d828233611e4d565b5050565b6001600160a01b0382166107b057604051633250574960e11b8152600060048201526024015b60405180910390fd5b60006107bd838333611e5a565b9050836001600160a01b0316816001600160a01b03161461080b576040516364283d7b60e01b81526001600160a01b03808616600483015260248201849052821660448201526064016107a7565b50505050565b61082c83838360405180602001604052806000815250610c4e565b505050565b60006106b182611e14565b6014805461084990612acf565b80601f016020809104026020016040519081016040528092919081815260200182805461087590612acf565b80156108c25780601f10610897576101008083540402835291602001916108c2565b820191906000526020600020905b8154815290600101906020018083116108a557829003601f168201915b505050505081565b60006001600160a01b0382166108f6576040516322718ad960e21b8152600060048201526024016107a7565b506001600160a01b031660009081526003602052604090205490565b61091a611f53565b6109246000611f80565b565b6060600180546106c690612acf565b60115460009062010000900460ff166109605760405162461bcd60e51b81526004016107a790612b09565b60115460ff16156109835760405162461bcd60e51b81526004016107a790612b4a565b600083116109a35760405162461bcd60e51b81526004016107a790612b81565b60006127106109b28486612be5565b6109bc9190612bfc565b6109c69085612c1e565b600d54600e54919250906109db908390612c1e565b1115610a4f5760405162461bcd60e51b815260206004820152603d60248201527f42696c6c4f664c6164696e673a206f66666572207769746820696e746572657360448201527f7420776f756c6420657863656564206465636c617265642076616c756500000060648201526084016107a7565b6013805460009182610a6083612c31565b90915550604080516080810182523380825260208083018a81528385018a8152600060608087018281528983526012865291889020965187546001600160a01b0319166001600160a01b039091161787559251600187015590516002860155516003909401805460ff19169415159490941790935583518a81529081018990529283018490529293507f6651ad68b77f61e7600bc16c3c7108ec45225340ce47a77729663f01b5fcc0b1910160405180910390a2949350505050565b61077d338383611fd2565b600a546001600160a01b03163314610b905760405162461bcd60e51b815260206004820152602660248201527f42696c6c4f664c6164696e673a206f6e6c792062757965722063616e207375726044820152653932b73232b960d11b60648201526084016107a7565b60115462010000900460ff16610bf45760405162461bcd60e51b8152602060048201526024808201527f42696c6c4f664c6164696e673a2066756e64696e67206973206e6f7420656e61604482015263189b195960e21b60648201526084016107a7565b60115460ff1615610c175760405162461bcd60e51b81526004016107a790612b4a565b6011805462ff0000191690556040517f2e8acb0d9d788a0ec57a41bd30f1d7e7e5512ab7ea0b09f526c7745287da001190600090a1565b610c59848484610781565b61080b3385858585612069565b610c6e612194565b60115460ff1615610c915760405162461bcd60e51b81526004016107a790612b4a565b601054610cee5760405162461bcd60e51b815260206004820152602560248201527f42696c6c4f664c6164696e673a206e6f2072657061796d656e747320617661696044820152646c61626c6560d81b60648201526084016107a7565b600c546001600160a01b0316610d165760405162461bcd60e51b81526004016107a790612c4a565b600e54610d655760405162461bcd60e51b815260206004820181905260248201527f42696c6c4f664c6164696e673a206e6f7468696e67207761732066756e64656460448201526064016107a7565b6008546040516370a0823160e01b81523360048201526000916001600160a01b0316906370a0823190602401602060405180830381865afa158015610dae573d6000803e3d6000fd5b505050506040513d601f19601f82011682018060405250810190610dd29190612c7f565b905060008111610e345760405162461bcd60e51b815260206004820152602760248201527f42696c6c4f664c6164696e673a206e6f20636c61696d20746f6b656e7320746f6044820152662072656465656d60c81b60648201526084016107a7565b600854604080516318160ddd60e01b815290516000926001600160a01b0316916318160ddd9160048083019260209291908290030181865afa158015610e7e573d6000803e3d6000fd5b505050506040513d601f19601f82011682018060405250810190610ea29190612c7f565b905060008111610f095760405162461bcd60e51b815260206004820152602c60248201527f42696c6c4f664c6164696e673a206e6f20636c61696d20746f6b656e7320696e60448201526b1031b4b931bab630ba34b7b760a11b60648201526084016107a7565b600e546000908290610f1b9085612be5565b610f259190612bfc565b33600090815260156020526040812054919250818311610f46576000610f50565b610f508284612c98565b905060008111610fa25760405162461bcd60e51b815260206004820152601f60248201527f42696c6c4f664c6164696e673a206e6f7468696e6720746f2072656465656d0060448201526064016107a7565b336000818152601560205260409020849055600c5486916001600160a01b0390911690610fd1908290856121be565b600854604051632770a7eb60e21b8152336004820152602481018490526001600160a01b0390911690639dc29fac90604401600060405180830381600087803b15801561101d57600080fd5b505af1158015611031573d6000803e3d6000fd5b505060408051868152602081018690523393507f987d620f307ff6b94d58743cb7a7509f24071586a77759b77c2d4e29f75a2f9a92500160405180910390a2600860009054906101000a90046001600160a01b03166001600160a01b03166318160ddd6040518163ffffffff1660e01b8152600401602060405180830381865afa1580156110c3573d6000803e3d6000fd5b505050506040513d601f19601f820116820180604052508101906110e79190612c7f565b6000036110f6576110f661221d565b505050505050506109246001600755565b61110f612194565b600a546001600160a01b031633146111695760405162461bcd60e51b815260206004820181905260248201527f42696c6c4f664c6164696e673a206f6e6c792062757965722063616e2070617960448201526064016107a7565b60115460ff161561118c5760405162461bcd60e51b81526004016107a790612b4a565b600081116111ac5760405162461bcd60e51b81526004016107a790612b81565b600c546001600160a01b03166111d45760405162461bcd60e51b81526004016107a790612c4a565b600c546001600160a01b03166111ec813330856122b4565b81600960070160008282546112019190612c1e565b909155505060405182815233907f737c69225d647e5994eab1a6c301bf6d9232beb2759ae1e27a8966b4732bc4899060200160405180910390a2506112466001600755565b50565b6011546301000000900460ff16156112a35760405162461bcd60e51b815260206004820181905260248201527f42696c6c4f664c6164696e673a204e465420616c7265616479206d696e74656460448201526064016107a7565b600a546001600160a01b038481169116146113005760405162461bcd60e51b815260206004820152601c60248201527f42696c6c4f664c6164696e673a206275796572206d69736d617463680000000060448201526064016107a7565b600b546001600160a01b0383811691161461135d5760405162461bcd60e51b815260206004820152601d60248201527f42696c6c4f664c6164696e673a2073656c6c6572206d69736d6174636800000060448201526064016107a7565b600d5481146113ba5760405162461bcd60e51b8152602060048201526024808201527f42696c6c4f664c6164696e673a206465636c6172656456616c7565206d69736d6044820152630c2e8c6d60e31b60648201526084016107a7565b600c546001600160a01b03166113e25760405162461bcd60e51b81526004016107a790612c4a565b6113ed3060016122ed565b6011805463ff000000191663010000001790556040516001600160a01b0380841691908516907ff238fcd2133237bc5ae0e1f42086a193f4fddae976468b0797a9260c8f29221990611443908590601490612cab565b60405180910390a3505050565b611458612194565b600b546001600160a01b031633146114c65760405162461bcd60e51b815260206004820152602b60248201527f42696c6c4f664c6164696e673a206f6e6c792073656c6c65722063616e20616360448201526a63657074206f666665727360a81b60648201526084016107a7565b60115462010000900460ff166114ee5760405162461bcd60e51b81526004016107a790612b09565b60115460ff16156115115760405162461bcd60e51b81526004016107a790612b4a565b600c546001600160a01b03166115395760405162461bcd60e51b81526004016107a790612c4a565b600081815260126020526040902080546001600160a01b03166115a95760405162461bcd60e51b815260206004820152602260248201527f42696c6c4f664c6164696e673a206f6666657220646f6573206e6f74206578696044820152611cdd60f21b60648201526084016107a7565b600381015460ff161561160a5760405162461bcd60e51b8152602060048201526024808201527f42696c6c4f664c6164696e673a206f6666657220616c726561647920616363656044820152631c1d195960e21b60648201526084016107a7565b6001810154600282015460006127106116238385612be5565b61162d9190612bfc565b6116379084612c1e565b600d54600e549192509061164c908390612c1e565b11156116c05760405162461bcd60e51b815260206004820152603960248201527f42696c6c4f664c6164696e673a20616363657074696e67206f6666657220776f60448201527f756c6420657863656564206465636c617265642076616c75650000000000000060648201526084016107a7565b600c548454600b546001600160a01b03928316926116e59284929082169116876122b4565b60085485546040516340c10f1960e01b81526001600160a01b039182166004820152602481018590529116906340c10f1990604401600060405180830381600087803b15801561173457600080fd5b505af1158015611748573d6000803e3d6000fd5b5050505081600960050160008282546117619190612c1e565b9091555050600f805485919060009061177b908490612c1e565b909155505060038501805460ff1916600117905584546040805186815260208101859052908101859052606081018890526001600160a01b03909116907fd0fdcb52e246f4f01269c2a4465377e6a9585c6641a1f1c6283b49a37e1e25da9060800160405180910390a2600d54600e540361181a576040517ff36efb6fa3e5dc00512e1b052905075cff63f39fd0ba2dcc94d3b56927c1487190600090a15b50505050506112466001600755565b606061183482611e14565b50600061184c60408051602081019091526000815290565b9050600081511161186c5760405180602001604052806000815250611897565b8061187684612352565b604051602001611887929190612d60565b6040516020818303038152906040525b9392505050565b6118a6611f53565b600c546001600160a01b03161561190b5760405162461bcd60e51b8152602060048201526024808201527f42696c6c4f664c6164696e673a20737461626c65636f696e20616c7265616479604482015263081cd95d60e21b60648201526084016107a7565b6001600160a01b0381166119795760405162461bcd60e51b815260206004820152602f60248201527f42696c6c4f664c6164696e673a20737461626c65636f696e2063616e6e6f742060448201526e6265207a65726f206164647265737360881b60648201526084016107a7565b600c80546001600160a01b0319166001600160a01b0392909216919091179055565b6119a3612194565b600a546001600160a01b03163314611a095760405162461bcd60e51b815260206004820152602360248201527f42696c6c4f664c6164696e673a206f6e6c792062757965722063616e207265666044820152621d5b9960ea1b60648201526084016107a7565b60115460ff1615611a2c5760405162461bcd60e51b81526004016107a790612b4a565b601054611a7b5760405162461bcd60e51b815260206004820152601e60248201527f42696c6c4f664c6164696e673a206e6f207061796d656e7473206d616465000060448201526064016107a7565b600860009054906101000a90046001600160a01b03166001600160a01b03166318160ddd6040518163ffffffff1660e01b8152600401602060405180830381865afa158015611ace573d6000803e3d6000fd5b505050506040513d601f19601f82011682018060405250810190611af29190612c7f565b15611b5d5760405162461bcd60e51b815260206004820152603560248201527f42696c6c4f664c6164696e673a20616c6c20636c61696d20746f6b656e73206d6044820152741d5cdd081899481c995919595b595908199a5c9cdd605a1b60648201526084016107a7565b600c546001600160a01b0316611b855760405162461bcd60e51b81526004016107a790612c4a565b600f5460105460009110611b9a576000611baa565b600f54601054611baa9190612c98565b905060008111611c065760405162461bcd60e51b815260206004820152602160248201527f42696c6c4f664c6164696e673a206e6f2065786365737320746f20726566756e6044820152601960fa1b60648201526084016107a7565b600c546001600160a01b0316611c1d8133846121be565b8160096007016000828254611c329190612c98565b909155505060405182815233907fd7dee2702d63ad89917b6a4da9981c90c4d24f8c2bdfd64c604ecae57d8d06519060200160405180910390a2611c7461221d565b50506109246001600755565b6001600160a01b03918216600090815260056020908152604080832093909416825291909152205460ff1690565b6011546301000000900460ff16611d165760405162461bcd60e51b815260206004820152602660248201527f42696c6c4f664c6164696e673a204e4654206d757374206265206d696e74656460448201526508199a5c9cdd60d21b60648201526084016107a7565b601154610100900460ff1615611d7a5760405162461bcd60e51b815260206004820152602360248201527f42696c6c4f664c6164696e673a20636c61696d7320616c7265616479206973736044820152621d595960ea1b60648201526084016107a7565b60115460ff1615611d9d5760405162461bcd60e51b81526004016107a790612b4a565b6011805462ffff001916620101001790556040517fc9b0a2a786a606c7564c856e06c58d7280f2198c3db6f5966a7b302319a36c8990600090a1565b611de1611f53565b6001600160a01b038116611e0b57604051631e4fbdf760e01b8152600060048201526024016107a7565b61124681611f80565b6000818152600260205260408120546001600160a01b0316806106b157604051637e27328960e01b8152600481018490526024016107a7565b61082c83838360016123e5565b6000828152600260205260408120546001600160a01b0390811690831615611e8757611e878184866124eb565b6001600160a01b03811615611ec557611ea46000856000806123e5565b6001600160a01b038116600090815260036020526040902080546000190190555b6001600160a01b03851615611ef4576001600160a01b0385166000908152600360205260409020805460010190555b60008481526002602052604080822080546001600160a01b0319166001600160a01b0389811691821790925591518793918516917fddf252ad1be2c89b69c2b068fc378daa952ba7f163c4a11628f55a4df523b3ef91a4949350505050565b6006546001600160a01b031633146109245760405163118cdaa760e01b81523360048201526024016107a7565b600680546001600160a01b038381166001600160a01b0319831681179093556040519116919082907f8be0079c531659141344cd1fd0a4f28419497f9722a3daafe3b4186f6b6457e090600090a35050565b6001600160a01b03821661200457604051630b61174360e31b81526001600160a01b03831660048201526024016107a7565b6001600160a01b03838116600081815260056020908152604080832094871680845294825291829020805460ff191686151590811790915591519182527f17307eab39ab6107e8899845ad3d59bd9653f200f220920489ca2b5937696c319101611443565b6001600160a01b0383163b1561218d57604051630a85bd0160e11b81526001600160a01b0384169063150b7a02906120ab908890889087908790600401612d8f565b6020604051808303816000875af19250505080156120e6575060408051601f3d908101601f191682019092526120e391810190612dcc565b60015b61214f573d808015612114576040519150601f19603f3d011682016040523d82523d6000602084013e612119565b606091505b50805160000361214757604051633250574960e11b81526001600160a01b03851660048201526024016107a7565b805160208201fd5b6001600160e01b03198116630a85bd0160e11b1461218b57604051633250574960e11b81526001600160a01b03851660048201526024016107a7565b505b5050505050565b6002600754036121b757604051633ee5aeb560e01b815260040160405180910390fd5b6002600755565b6040516001600160a01b0383811660248301526044820183905261082c91859182169063a9059cbb906064015b604051602081830303815290604052915060e01b6020820180516001600160e01b03838183161783525050505061254f565b60115460ff16156122705760405162461bcd60e51b815260206004820152601d60248201527f42696c6c4f664c6164696e673a20616c726561647920736574746c656400000060448201526064016107a7565b6011805460ff19166001908117909155612289906125c0565b6040517f97088ec3606cfe8cc112180570d03fcde05f9b8e1bfef8e27784eaf5dd5691b690600090a1565b6040516001600160a01b03848116602483015283811660448301526064820183905261080b9186918216906323b872dd906084016121eb565b6001600160a01b03821661231757604051633250574960e11b8152600060048201526024016107a7565b600061232583836000611e5a565b90506001600160a01b0381161561082c576040516339e3563760e11b8152600060048201526024016107a7565b6060600061235f836125fb565b600101905060008167ffffffffffffffff81111561237f5761237f6128e3565b6040519080825280601f01601f1916602001820160405280156123a9576020820181803683370190505b5090508181016020015b600019016f181899199a1a9b1b9c1cb0b131b232b360811b600a86061a8153600a85049450846123b357509392505050565b80806123f957506001600160a01b03821615155b156124bb57600061240984611e14565b90506001600160a01b038316158015906124355750826001600160a01b0316816001600160a01b031614155b801561244857506124468184611c80565b155b156124715760405163a9fbf51f60e01b81526001600160a01b03841660048201526024016107a7565b81156124b95783856001600160a01b0316826001600160a01b03167f8c5be1e5ebec7d5bd14f71427d1e84f3dd0314c0f7b2291e5b200ac8c7c3b92560405160405180910390a45b505b5050600090815260046020526040902080546001600160a01b0319166001600160a01b0392909216919091179055565b6124f68383836126d3565b61082c576001600160a01b03831661252457604051637e27328960e01b8152600481018290526024016107a7565b60405163177e802f60e01b81526001600160a01b0383166004820152602481018290526044016107a7565b600080602060008451602086016000885af180612572576040513d6000823e3d81fd5b50506000513d9150811561258a578060011415612597565b6001600160a01b0384163b155b1561080b57604051635274afe760e01b81526001600160a01b03851660048201526024016107a7565b60006125cf6000836000611e5a565b90506001600160a01b03811661077d57604051637e27328960e01b8152600481018390526024016107a7565b60008072184f03e93ff9f4daa797ed6e38ed64bf6a1f0160401b831061263a5772184f03e93ff9f4daa797ed6e38ed64bf6a1f0160401b830492506040015b6d04ee2d6d415b85acef81000000008310612666576d04ee2d6d415b85acef8100000000830492506020015b662386f26fc10000831061268457662386f26fc10000830492506010015b6305f5e100831061269c576305f5e100830492506008015b61271083106126b057612710830492506004015b606483106126c2576064830492506002015b600a83106106b15760010192915050565b60006001600160a01b038316158015906127315750826001600160a01b0316846001600160a01b0316148061270d575061270d8484611c80565b8061273157506000828152600460205260409020546001600160a01b038481169116145b949350505050565b6001600160e01b03198116811461124657600080fd5b60006020828403121561276157600080fd5b813561189781612739565b60005b8381101561278757818101518382015260200161276f565b50506000910152565b600081518084526127a881602086016020860161276c565b601f01601f19169290920160200192915050565b6020815260006118976020830184612790565b6000602082840312156127e157600080fd5b5035919050565b80356001600160a01b03811681146127ff57600080fd5b919050565b6000806040838503121561281757600080fd5b612820836127e8565b946020939093013593505050565b60008060006060848603121561284357600080fd5b61284c846127e8565b925061285a602085016127e8565b9150604084013590509250925092565b60006020828403121561287c57600080fd5b611897826127e8565b6000806040838503121561289857600080fd5b50508035926020909101359150565b600080604083850312156128ba57600080fd5b6128c3836127e8565b9150602083013580151581146128d857600080fd5b809150509250929050565b634e487b7160e01b600052604160045260246000fd5b6000806000806080858703121561290f57600080fd5b612918856127e8565b9350612926602086016127e8565b925060408501359150606085013567ffffffffffffffff8082111561294a57600080fd5b818701915087601f83011261295e57600080fd5b813581811115612970576129706128e3565b604051601f8201601f19908116603f01168101908382118183101715612998576129986128e3565b816040528281528a60208487010111156129b157600080fd5b82602086016020830137600060208483010152809550505050505092959194509250565b815181526020808301516101808301916129f9908401826001600160a01b03169052565b506040830151612a1460408401826001600160a01b03169052565b506060830151612a2f60608401826001600160a01b03169052565b506080830151608083015260a083015160a083015260c083015160c083015260e083015160e083015261010080840151612a6c8285018215159052565b50506101208381015115159083015261014080840151151590830152610160928301511515929091019190915290565b60008060408385031215612aaf57600080fd5b612ab8836127e8565b9150612ac6602084016127e8565b90509250929050565b600181811c90821680612ae357607f821691505b602082108103612b0357634e487b7160e01b600052602260045260246000fd5b50919050565b60208082526021908201527f42696c6c4f664c6164696e673a2066756e64696e67206e6f7420656e61626c656040820152601960fa1b606082015260800190565b6020808252601e908201527f42696c6c4f664c6164696e673a20747261646520697320736574746c65640000604082015260600190565b6020808252602e908201527f42696c6c4f664c6164696e673a20616d6f756e74206d7573742062652067726560408201526d61746572207468616e207a65726f60901b606082015260800190565b634e487b7160e01b600052601160045260246000fd5b80820281158282048414176106b1576106b1612bcf565b600082612c1957634e487b7160e01b600052601260045260246000fd5b500490565b808201808211156106b1576106b1612bcf565b600060018201612c4357612c43612bcf565b5060010190565b6020808252818101527f42696c6c4f664c6164696e673a20737461626c65636f696e206e6f7420736574604082015260600190565b600060208284031215612c9157600080fd5b5051919050565b818103818111156106b1576106b1612bcf565b828152600060206040818401526000845481600182811c915080831680612cd357607f831692505b8583108103612cf057634e487b7160e01b85526022600452602485fd5b6040880183905260608801818015612d0f5760018114612d2557612d50565b60ff198616825284151560051b82019650612d50565b60008b81526020902060005b86811015612d4a57815484820152908501908901612d31565b83019750505b50949a9950505050505050505050565b60008351612d7281846020880161276c565b835190830190612d8681836020880161276c565b01949350505050565b6001600160a01b0385811682528416602082015260408101839052608060608201819052600090612dc290830184612790565b9695505050505050565b600060208284031215612dde57600080fd5b81516118978161273956fea2646970667358221220f40030d28c5d18dfe0f18545cc0b53c9046ef791066319d0418079308b52d34f64736f6c6343000814003360a06040523480156200001157600080fd5b5060405162000cf738038062000cf7833981016040819052620000349162000137565b81604051806040016040528060118152602001702a3930b2329021b630b4b6902a37b5b2b760791b81525060405180604001604052806005815260200164434c41494d60d81b81525081600390816200008e919062000218565b5060046200009d828262000218565b5050506001600160a01b038116620000cf57604051631e4fbdf760e01b81526000600482015260240160405180910390fd5b620000da81620000e5565b5060805250620002e4565b600580546001600160a01b038381166001600160a01b0319831681179093556040519116919082907f8be0079c531659141344cd1fd0a4f28419497f9722a3daafe3b4186f6b6457e090600090a35050565b600080604083850312156200014b57600080fd5b82516001600160a01b03811681146200016357600080fd5b6020939093015192949293505050565b634e487b7160e01b600052604160045260246000fd5b600181811c908216806200019e57607f821691505b602082108103620001bf57634e487b7160e01b600052602260045260246000fd5b50919050565b601f8211156200021357600081815260208120601f850160051c81016020861015620001ee5750805b601f850160051c820191505b818110156200020f57828155600101620001fa565b5050505b505050565b81516001600160401b0381111562000234576200023462000173565b6200024c8162000245845462000189565b84620001c5565b602080601f8311600181146200028457600084156200026b5750858301515b600019600386901b1c1916600185901b1785556200020f565b600085815260208120601f198616915b82811015620002b55788860151825594840194600190910190840162000294565b5085821015620002d45787850151600019600388901b60f8161c191681555b5050505050600190811b01905550565b6080516109f06200030760003960008181610203015261034b01526109f06000f3fe608060405234801561001057600080fd5b50600436106100f55760003560e01c8063715018a611610097578063a9059cbb11610066578063a9059cbb146101eb578063d5abeb01146101fe578063dd62ed3e14610225578063f2fde38b1461025e57600080fd5b8063715018a6146101ad5780638da5cb5b146101b557806395d89b41146101d05780639dc29fac146101d857600080fd5b806323b872dd116100d357806323b872dd1461014d578063313ce5671461016057806340c10f191461016f57806370a082311461018457600080fd5b806306fdde03146100fa578063095ea7b31461011857806318160ddd1461013b575b600080fd5b610102610271565b60405161010f919061083a565b60405180910390f35b61012b6101263660046108a4565b610303565b604051901515815260200161010f565b6002545b60405190815260200161010f565b61012b61015b3660046108ce565b61031d565b6040516012815260200161010f565b61018261017d3660046108a4565b610341565b005b61013f61019236600461090a565b6001600160a01b031660009081526020819052604090205490565b6101826103df565b6005546040516001600160a01b03909116815260200161010f565b6101026103f3565b6101826101e63660046108a4565b610402565b61012b6101f93660046108a4565b610414565b61013f7f000000000000000000000000000000000000000000000000000000000000000081565b61013f61023336600461092c565b6001600160a01b03918216600090815260016020908152604080832093909416825291909152205490565b61018261026c36600461090a565b610422565b6060600380546102809061095f565b80601f01602080910402602001604051908101604052809291908181526020018280546102ac9061095f565b80156102f95780601f106102ce576101008083540402835291602001916102f9565b820191906000526020600020905b8154815290600101906020018083116102dc57829003601f168201915b5050505050905090565b600033610311818585610460565b60019150505b92915050565b60003361032b858285610472565b6103368585856104f1565b506001949350505050565b610349610550565b7f00000000000000000000000000000000000000000000000000000000000000008161037460025490565b61037e9190610999565b11156103d15760405162461bcd60e51b815260206004820152601e60248201527f436c61696d546f6b656e3a2065786365656473206d617820737570706c79000060448201526064015b60405180910390fd5b6103db828261057d565b5050565b6103e7610550565b6103f160006105b3565b565b6060600480546102809061095f565b61040a610550565b6103db8282610605565b6000336103118185856104f1565b61042a610550565b6001600160a01b03811661045457604051631e4fbdf760e01b8152600060048201526024016103c8565b61045d816105b3565b50565b61046d838383600161063b565b505050565b6001600160a01b038381166000908152600160209081526040808320938616835292905220546000198110156104eb57818110156104dc57604051637dc7a0d960e11b81526001600160a01b038416600482015260248101829052604481018390526064016103c8565b6104eb8484848403600061063b565b50505050565b6001600160a01b03831661051b57604051634b637e8f60e11b8152600060048201526024016103c8565b6001600160a01b0382166105455760405163ec442f0560e01b8152600060048201526024016103c8565b61046d838383610710565b6005546001600160a01b031633146103f15760405163118cdaa760e01b81523360048201526024016103c8565b6001600160a01b0382166105a75760405163ec442f0560e01b8152600060048201526024016103c8565b6103db60008383610710565b600580546001600160a01b038381166001600160a01b0319831681179093556040519116919082907f8be0079c531659141344cd1fd0a4f28419497f9722a3daafe3b4186f6b6457e090600090a35050565b6001600160a01b03821661062f57604051634b637e8f60e11b8152600060048201526024016103c8565b6103db82600083610710565b6001600160a01b0384166106655760405163e602df0560e01b8152600060048201526024016103c8565b6001600160a01b03831661068f57604051634a1406b160e11b8152600060048201526024016103c8565b6001600160a01b03808516600090815260016020908152604080832093871683529290522082905580156104eb57826001600160a01b0316846001600160a01b03167f8c5be1e5ebec7d5bd14f71427d1e84f3dd0314c0f7b2291e5b200ac8c7c3b9258460405161070291815260200190565b60405180910390a350505050565b6001600160a01b03831661073b5780600260008282546107309190610999565b909155506107ad9050565b6001600160a01b0383166000908152602081905260409020548181101561078e5760405163391434e360e21b81526001600160a01b038516600482015260248101829052604481018390526064016103c8565b6001600160a01b03841660009081526020819052604090209082900390555b6001600160a01b0382166107c9576002805482900390556107e8565b6001600160a01b03821660009081526020819052604090208054820190555b816001600160a01b0316836001600160a01b03167fddf252ad1be2c89b69c2b068fc378daa952ba7f163c4a11628f55a4df523b3ef8360405161082d91815260200190565b60405180910390a3505050565b600060208083528351808285015260005b818110156108675785810183015185820160400152820161084b565b506000604082860101526040601f19601f8301168501019250505092915050565b80356001600160a01b038116811461089f57600080fd5b919050565b600080604083850312156108b757600080fd5b6108c083610888565b946020939093013593505050565b6000806000606084860312156108e357600080fd5b6108ec84610888565b92506108fa60208501610888565b9150604084013590509250925092565b60006020828403121561091c57600080fd5b61092582610888565b9392505050565b6000806040838503121561093f57600080fd5b61094883610888565b915061095660208401610888565b90509250929050565b600181811c9082168061097357607f821691505b60208210810361099357634e487b7160e01b600052602260045260246000fd5b50919050565b8082018082111561031757634e487b7160e01b600052601160045260246000fdfea26469706673582212209e7418b5b728da4be3fcf3fbb85ea226b50e55eb0d40b84f6ba5a6a9feb9602764736f6c63430008140033",
  "linkReferences": {},
  "deployedLinkReferences": {}
}