{
  "_format": "hh-sol-artifact-1",
  "contractName": "ClaimToken",
  "sourceName": "contracts/BillOfLading.sol",
  "abi": [
    {
      "inputs": [
        {
          "internalType": "address",
          "name": "billOfLadingContract",
          "type": "address"
        },
        {
          "internalType": "uint256",
          "name": "_maxSupply",
          "type": "uint256"
        }
      ],
      "stateMutability": "nonpayable",
      "type": "constructor"
    },
    {
      "inputs": [
        {
          "internalType": "address",
          "name": "spender",
          "type": "address"
        },
        {
          "internalType": "uint256",
          "name": "allowance",
          "type": "uint256"
        },
        {
          "internalType": "uint256",
          "name": "needed",
          "type": "uint256"
        }
      ],
      "name": "ERC20InsufficientAllowance",
      "type": "error"
    },
    {
      "inputs": [
        {
          "internalType": "address",
          "name": "sender",
          "type": "address"
        },
        {
          "internalType": "uint256",
          "name": "balance",
          "type": "uint256"
        },
        {
          "internalType": "uint256",
          "name": "needed",
          "type": "uint256"
        }
      ],
      "name": "ERC20InsufficientBalance",
      "type": "error"
    },
    {
      "inputs": [
        {
          "internalType": "address",
          "name": "approver",
          "type": "address"
        }
      ],
      "name": "ERC20InvalidApprover",
      "type": "error"
    },
    {
      "inputs": [
        {
          "internalType": "address",
          "name": "receiver",
          "type": "address"
        }
      ],
      "name": "ERC20InvalidReceiver",
      "type": "error"
    },
    {
      "inputs": [
        {
          "internalType": "address",
          "name": "sender",
          "type": "address"
        }
      ],
      "name": "ERC20InvalidSender",
      "type": "error"
    },
    {
      "inputs": [
        {
          "internalType": "address",
          "name": "spender",
          "type": "address"
        }
      ],
      "name": "ERC20InvalidSpender",
      "type": "error"
    },
    {
      "inputs": [
        {
          "internalType": "address",
          "name": "owner",
          "type": "address"
        }
      ],
      "name": "OwnableInvalidOwner",
      "type": "error"
    },
    {
      "inputs": [
        {
          "internalType": "address",
          "name": "account",
          "type": "address"
        }
      ],
      "name": "OwnableUnauthorizedAccount",
      "type": "error"
    },
    {
      "anonymous": false,
      "inputs": [
        {
          "indexed": true,
          "internalType": "address",
          "name": "owner",
          "type": "address"
        },
        {
          "indexed": true,
          "internalType": "address",
          "name": "spender",
          "type": "address"
        },
        {
          "indexed": false,
          "internalType": "uint256",
          "name": "value",
          "type": "uint256"
        }
      ],
      "name": "Approval",
      "type": "event"
    },
    {
      "anonymous": false,
      "inputs": [
        {
          "indexed": true,
          "internalType": "address",
          "name": "previousOwner",
          "type": "address"
        },
        {
          "indexed": true,
          "internalType": "address",
          "name": "newOwner",
          "type": "address"
        }
      ],
      "name": "OwnershipTransferred",
      "type": "event"
    },
    {
      "anonymous": false,
      "inputs": [
        {
          "indexed": true,
          "internalType": "address",
          "name": "from",
          "type": "address"
        },
        {
          "indexed": true,
          "internalType": "address",
          "name": "to",
          "type": "address"
        },
        {
          "indexed": false,
          "internalType": "uint256",
          "name": "value",
          "type": "uint256"
        }
      ],
      "name": "Transfer",
      "type": "event"
    },
    {
      "inputs": [
        {
          "internalType": "address",
          "name": "owner",
          "type": "address"
        },
        {
          "internalType": "address",
          "name": "spender",
          "type": "address"
        }
      ],
      "name": "allowance",
      "outputs": [
        {
          "internalType": "uint256",
          "name": "",
          "type": "uint256"
        }
      ],
      "stateMutability": "view",
      "type": "function"
    },
    {
      "inputs": [
        {
          "internalType": "address",
          "name": "spender",
          "type": "address"
        },
        {
          "internalType": "uint256",
          "name": "value",
          "type": "uint256"
        }
      ],
      "name": "approve",
      "outputs": [
        {
          "internalType": "bool",
          "name": "",
          "type": "bool"
        }
      ],
      "stateMutability": "nonpayable",
      "type": "function"
    },
    {
      "inputs": [
        {
          "internalType": "address",
          "name": "account",
          "type": "address"
        }
      ],
      "name": "balanceOf",
      "outputs": [
        {
          "internalType": "uint256",
          "name": "",
          "type": "uint256"
        }
      ],
      "stateMutability": "view",
      "type": "function"
    },
    {
      "inputs": [
        {
          "internalType": "address",
          "name": "from",
          "type": "address"
        },
        {
          "internalType": "uint256",
          "name": "amount",
          "type": "uint256"
        }
      ],
      "name": "burn",
      "outputs": [],
      "stateMutability": "nonpayable",
      "type": "function"
    },
    {
      "inputs": [],
      "name": "decimals",
      "outputs": [
        {
          "internalType": "uint8",
          "name": "",
          "type": "uint8"
        }
      ],
      "stateMutability": "view",
      "type": "function"
    },
    {
      "inputs": [],
      "name": "maxSupply",
      "outputs": [
        {
          "internalType": "uint256",
          "name": "",
          "type": "uint256"
        }
      ],
      "stateMutability": "view",
      "type": "function"
    },
    {
      "inputs": [
        {
          "internalType": "address",
          "name": "to",
          "type": "address"
        },
        {
          "internalType": "uint256",
          "name": "amount",
          "type": "uint256"
        }
      ],
      "name": "mint",
      "outputs": [],
      "stateMutability": "nonpayable",
      "type": "function"
    },
    {
      "inputs": [],
      "name": "name",
      "outputs": [
        {
          "internalType": "string",
          "name": "",
          "type": "string"
        }
      ],
      "stateMutability": "view",
      "type": "function"
    },
    {
      "inputs": [],
      "name": "owner",
      "outputs": [
        {
          "internalType": "address",
          "name": "",
          "type": "address"
        }
      ],
      "stateMutability": "view",
      "type": "function"
    },
    {
      "inputs": [],
      "name": "renounceOwnership",
      "outputs": [],
      "stateMutability": "nonpayable",
      "type": "function"
    },
    {
      "inputs": [],
      "name": "symbol",
      "outputs": [
        {
          "internalType": "string",
          "name": "",
          "type": "string"
        }
      ],
      "stateMutability": "view",
      "type": "function"
    },
    {
      "inputs": [],
      "name": "totalSupply",
      "outputs": [
        {
          "internalType": "uint256",
          "name": "",
          "type": "uint256"
        }
      ],
      "stateMutability": "view",
      "type": "function"
    },
    {
      "inputs": [
        {
          "internalType": "address",
          "name": "to",
          "type": "address"
        },
        {
          "internalType": "uint256",
          "name": "value",
          "type": "uint256"
        }
      ],
      "name": "transfer",
      "outputs": [
        {
          "internalType": "bool",
          "name": "",
          "type": "bool"
        }
      ],
      "stateMutability": "nonpayable",
      "type": "function"
    },
    {
      "inputs": [
        {
          "internalType": "address",
          "name": "from",
          "type": "address"
        },
        {
          "internalType": "address",
          "name": "to",
          "type": "address"
        },
        {
          "internalType": "uint256",
          "name": "value",
          "type": "uint256"
        }
      ],
      "name": "transferFrom",
      "outputs": [
        {
          "internalType": "bool",
          "name": "",
          "type": "bool"
        }
      ],
      "stateMutability": "nonpayable",
      "type": "function"
    },
    {
      "inputs": [
        {
          "internalType": "address",
          "name": "newOwner",
          "type": "address"
        }
      ],
      "name": "transferOwnership",
      "outputs": [],
      "stateMutability": "nonpayable",
      "type": "function"
    }
  ],
  "bytecode": "0x60a06040523480156200001157600080fd5b5060405162000cf738038062000cf7833981016040819052620000349162000137565b81604051806040016040528060118152602001702a3930b2329021b630b4b6902a37b5b2b760791b81525060405180604001604052806005815260200164434c41494d60d81b81525081600390816200008e919062000218565b5060046200009d828262000218565b5050506001600160a01b038116620000cf57604051631e4fbdf760e01b81526000600482015260240160405180910390fd5b620000da81620000e5565b5060805250620002e4565b600580546001600160a01b038381166001600160a01b0319831681179093556040519116919082907f8be0079c531659141344cd1fd0a4f28419497f9722a3daafe3b4186f6b6457e090600090a35050565b600080604083850312156200014b57600080fd5b82516001600160a01b03811681146200016357600080fd5b6020939093015192949293505050565b634e487b7160e01b600052604160045260246000fd5b600181811c908216806200019e57607f821691505b602082108103620001bf57634e487b7160e01b600052602260045260246000fd5b50919050565b601f8211156200021357600081815260208120601f850160051c81016020861015620001ee5750805b601f850160051c820191505b818110156200020f57828155600101620001fa565b5050505b505050565b81516001600160401b0381111562000234576200023462000173565b6200024c8162000245845462000189565b84620001c5565b602080601f8311600181146200028457600084156200026b5750858301515b600019600386901b1c1916600185901b1785556200020f565b600085815260208120601f198616915b82811015620002b55788860151825594840194600190910190840162000294565b5085821015620002d45787850151600019600388901b60f8161c191681555b5050505050600190811b01905550565b6080516109f06200030760003960008181610203015261034b01526109f06000f3fe608060405234801561001057600080fd5b50600436106100f55760003560e01c8063715018a611610097578063a9059cbb11610066578063a9059cbb146101eb578063d5abeb01146101fe578063dd62ed3e14610225578063f2fde38b1461025e57600080fd5b8063715018a6146101ad5780638da5cb5b146101b557806395d89b41146101d05780639dc29fac146101d857600080fd5b806323b872dd116100d357806323b872dd1461014d578063313ce5671461016057806340c10f191461016f57806370a082311461018457600080fd5b806306fdde03146100fa578063095ea7b31461011857806318160ddd1461013b575b600080fd5b610102610271565b60405161010f919061083a565b60405180910390f35b61012b6101263660046108a4565b610303565b604051901515815260200161010f565b6002545b60405190815260200161010f565b61012b61015b3660046108ce565b61031d565b6040516012815260200161010f565b61018261017d3660046108a4565b610341565b005b61013f61019236600461090a565b6001600160a01b031660009081526020819052604090205490565b6101826103df565b6005546040516001600160a01b03909116815260200161010f565b6101026103f3565b6101826101e63660046108a4565b610402565b61012b6101f93660046108a4565b610414565b61013f7f000000000000000000000000000000000000000000000000000000000000000081565b61013f61023336600461092c565b6001600160a01b03918216600090815260016020908152604080832093909416825291909152205490565b61018261026c36600461090a565b610422565b6060600380546102809061095f565b80601f01602080910402602001604051908101604052809291908181526020018280546102ac9061095f565b80156102f95780601f106102ce576101008083540402835291602001916102f9565b820191906000526020600020905b8154815290600101906020018083116102dc57829003601f168201915b5050505050905090565b600033610311818585610460565b60019150505b92915050565b60003361032b858285610472565b6103368585856104f1565b506001949350505050565b610349610550565b7f00000000000000000000000000000000000000000000000000000000000000008161037460025490565b61037e9190610999565b11156103d15760405162461bcd60e51b815260206004820152601e60248201527f436c61696d546f6b656e3a2065786365656473206d617820737570706c79000060448201526064015b60405180910390fd5b6103db828261057d565b5050565b6103e7610550565b6103f160006105b3565b565b6060600480546102809061095f565b61040a610550565b6103db8282610605565b6000336103118185856104f1565b61042a610550565b6001600160a01b03811661045457604051631e4fbdf760e01b8152600060048201526024016103c8565b61045d816105b3565b50565b61046d838383600161063b565b505050565b6001600160a01b038381166000908152600160209081526040808320938616835292905220546000198110156104eb57818110156104dc57604051637dc7a0d960e11b81526001600160a01b038416600482015260248101829052604481018390526064016103c8565b6104eb8484848403600061063b565b50505050565b6001600160a01b03831661051b57604051634b637e8f60e11b8152600060048201526024016103c8565b6001600160a01b0382166105455760405163ec442f0560e01b8152600060048201526024016103c8565b61046d838383610710565b6005546001600160a01b031633146103f15760405163118cdaa760e01b81523360048201526024016103c8565b6001600160a01b0382166105a75760405163ec442f0560e01b8152600060048201526024016103c8565b6103db60008383610710565b600580546001600160a01b038381166001600160a01b0319831681179093556040519116919082907f8be0079c531659141344cd1fd0a4f28419497f9722a3daafe3b4186f6b6457e090600090a35050565b6001600160a01b03821661062f57604051634b637e8f60e11b8152600060048201526024016103c8565b6103db82600083610710565b6001600160a01b0384166106655760405163e602df0560e01b8152600060048201526024016103c8565b6001600160a01b03831661068f57604051634a1406b160e11b8152600060048201526024016103c8565b6001600160a01b03808516600090815260016020908152604080832093871683529290522082905580156104eb57826001600160a01b0316846001600160a01b03167f8c5be1e5ebec7d5bd14f71427d1e84f3dd0314c0f7b2291e5b200ac8c7c3b9258460405161070291815260200190565b60405180910390a350505050565b6001600160a01b03831661073b5780600260008282546107309190610999565b909155506107ad9050565b6001600160a01b0383166000908152602081905260409020548181101561078e5760405163391434e360e21b81526001600160a01b038516600482015260248101829052604481018390526064016103c8565b6001600160a01b03841660009081526020819052604090209082900390555b6001600160a01b0382166107c9576002805482900390556107e8565b6001600160a01b03821660009081526020819052604090208054820190555b816001600160a01b0316836001600160a01b03167fddf252ad1be2c89b69c2b068fc378daa952ba7f163c4a11628f55a4df523b3ef8360405161082d91815260200190565b60405180910390a3505050565b600060208083528351808285015260005b818110156108675785810183015185820160400152820161084b565b506000604082860101526040601f19601f8301168501019250505092915050565b80356001600160a01b038116811461089f57600080fd5b919050565b600080604083850312156108b757600080fd5b6108c083610888565b946020939093013593505050565b6000806000606084860312156108e357600080fd5b6108ec84610888565b92506108fa60208501610888565b9150604084013590509250925092565b60006020828403121561091c57600080fd5b61092582610888565b9392505050565b6000806040838503121561093f57600080fd5b61094883610888565b915061095660208401610888565b90509250929050565b600181811c9082168061097357607f821691505b60208210810361099357634e487b7160e01b600052602260045260246000fd5b50919050565b8082018082111561031757634e487b7160e01b600052601160045260246000fdfea2646970667358221220cf34a6a0d4b75396185e63030ded8139b09b5d14f6b6a62410f7b985dc48298a64736f6c63430008140033",
  "linkReferences": {},
  "deployedLinkReferences": {}
}