{
  "_format": "hh-sol-artifact-1",
  "contractName": "BillOfLadingFactory",
  "sourceName": "contracts/BillOfLadingFactory.sol",
  "abi": [
    {
      "inputs": [
        {
          "internalType": "bytes32",
          "name": "",
          "type": "bytes32"
        }
      ],
      "name": "bolRegistry",
      "outputs": [
        {
          "internalType": "address",
          "name": "",
          "type": "address"
        }
      ],
      "stateMutability": "view",
      "type": "function"
    },
    {
      "inputs": [
        {
          "internalType": "bytes32",
          "name": "bolHash",
          "type": "bytes32"
        },
        {
          "internalType": "uint256",
          "name": "declaredValue",
          "type": "uint256"
        },
        {
          "internalType": "address",
          "name": "shipper",
          "type": "address"
        },
        {
          "internalType": "address",
          "name": "buyer",
          "type": "address"
        },
        {
          "internalType": "string",
          "name": "blNumber",
          "type": "string"
        },
        {
          "internalType": "string",
          "name": "sellerName",
          "type": "string"
        },
        {
          "internalType": "string",
          "name": "carrierName",
          "type": "string"
        },
        {
          "internalType": "string",
          "name": "buyerName",
          "type": "string"
        },
        {
          "internalType": "string",
          "name": "placeOfReceipt",
          "type": "string"
        },
        {
          "internalType": "string",
          "name": "placeOfDelivery",
          "type": "string"
        }
      ],
      "name": "createBoL",
      "outputs": [
        {
          "internalType": "address",
          "name": "billOfLadingAddress",
          "type": "address"
        }
      ],
      "stateMutability": "nonpayable",
      "type": "function"
    },
    {
      "inputs": [],
      "name": "defaultStablecoin",
      "outputs": [
        {
          "internalType": "address",
          "name": "",
          "type": "address"
        }
      ],
      "stateMutability": "view",
      "type": "function"
    },
    {
      "inputs": [
        {
          "internalType": "bytes32",
          "name": "bolHash",
          "type": "bytes32"
        }
      ],
      "name": "getBoLByHash",
      "outputs": [
        {
          "internalType": "bool",
          "name": "exists",
          "type": "bool"
        },
        {
          "internalType": "address",
          "name": "billOfLadingAddress",
          "type": "address"
        }
      ],
      "stateMutability": "view",
      "type": "function"
    },
    {
      "inputs": [
        {
          "internalType": "address",
          "name": "stablecoin",
          "type": "address"
        }
      ],
      "name": "setDefaultStablecoin",
      "outputs": [],
      "stateMutability": "nonpayable",
      "type": "function"
    }
  ],
  "bytecode": "0x608060405234801561001057600080fd5b50614edd806100206000396000f3fe60806040523480156200001157600080fd5b50600436106200005e5760003560e01c8063585ac35a1462000063578063a886b0f51462000097578063b61bb80a14620000c3578063c006ff8014620000d7578063c524a0561462000126575b600080fd5b6200007a6200007436600462000494565b6200013f565b6040516001600160a01b0390911681526020015b60405180910390f35b6200007a620000a8366004620005d8565b6000602081905290815260409020546001600160a01b031681565b6001546200007a906001600160a01b031681565b62000106620000e8366004620005d8565b6000908152602081905260409020546001600160a01b031680151591565b6040805192151583526001600160a01b039091166020830152016200008e565b6200013d62000137366004620005f2565b62000325565b005b60008a8152602081905260408120546001600160a01b031615620001bf5760405162461bcd60e51b815260206004820152602c60248201527f42696c6c4f664c6164696e67466163746f72793a20426f4c206861736820616c60448201526b72656164792065786973747360a01b60648201526084015b60405180910390fd5b60008b8a8a8d8b8b8b8b8b8b604051620001d990620003be565b620001ee9a999897969594939291906200065f565b604051809103906000f0801580156200020b573d6000803e3d6000fd5b5060008d815260208190526040902080546001600160a01b0319166001600160a01b03838116919091179091556001549193508392501615620003165760015460405163038222ff60e61b81526001600160a01b0391821660048201529082169063e088bfc090602401600060405180830381600087803b1580156200029057600080fd5b505af1158015620002a5573d6000803e3d6000fd5b5050604051636361ddf360e11b81526001600160a01b038c811660048301528d81166024830152604482018f90528416925063c6c3bbe69150606401600060405180830381600087803b158015620002fc57600080fd5b505af115801562000311573d6000803e3d6000fd5b505050505b509a9950505050505050505050565b6001600160a01b0381166200039c5760405162461bcd60e51b815260206004820152603660248201527f42696c6c4f664c6164696e67466163746f72793a20737461626c65636f696e2060448201527563616e6e6f74206265207a65726f206164647265737360501b6064820152608401620001b6565b600180546001600160a01b0319166001600160a01b0392909216919091179055565b61478b806200071d83390190565b80356001600160a01b0381168114620003e457600080fd5b919050565b634e487b7160e01b600052604160045260246000fd5b600082601f8301126200041157600080fd5b813567ffffffffffffffff808211156200042f576200042f620003e9565b604051601f8301601f19908116603f011681019082821181831017156200045a576200045a620003e9565b816040528381528660208588010111156200047457600080fd5b836020870160208301376000602085830101528094505050505092915050565b6000806000806000806000806000806101408b8d031215620004b557600080fd5b8a35995060208b01359850620004ce60408c01620003cc565b9750620004de60608c01620003cc565b965060808b013567ffffffffffffffff80821115620004fc57600080fd5b6200050a8e838f01620003ff565b975060a08d01359150808211156200052157600080fd5b6200052f8e838f01620003ff565b965060c08d01359150808211156200054657600080fd5b620005548e838f01620003ff565b955060e08d01359150808211156200056b57600080fd5b620005798e838f01620003ff565b94506101008d01359150808211156200059157600080fd5b6200059f8e838f01620003ff565b93506101208d0135915080821115620005b757600080fd5b50620005c68d828e01620003ff565b9150509295989b9194979a5092959850565b600060208284031215620005eb57600080fd5b5035919050565b6000602082840312156200060557600080fd5b6200061082620003cc565b9392505050565b6000815180845260005b818110156200063f5760208185018101518683018201520162000621565b506000602082860101526020601f19601f83011685010191505092915050565b8a81526001600160a01b038a811660208301528916604082015260608101889052610140608082018190526000906200069b8382018a62000617565b905082810360a0840152620006b1818962000617565b905082810360c0840152620006c7818862000617565b905082810360e0840152620006dd818762000617565b9050828103610100840152620006f4818662000617565b90508281036101208401526200070b818562000617565b9d9c5050505050505050505050505056fe60806040523480156200001157600080fd5b506040516200478b3803806200478b8339810160408190526200003491620006a0565b336040518060400160405280600e81526020016d42696c6c206f66204c6164696e6760901b815250604051806040016040528060038152602001621093d360ea1b815250816000908162000089919062000873565b50600162000098828262000873565b5050506001600160a01b038116620000cb57604051631e4fbdf760e01b8152600060048201526024015b60405180910390fd5b620000d68162000556565b5060016007556001600160a01b038916620001485760405162461bcd60e51b815260206004820152602b60248201527f42696c6c4f664c6164696e673a2073656c6c65722063616e6e6f74206265207a60448201526a65726f206164647265737360a81b6064820152608401620000c2565b6001600160a01b038816620001b35760405162461bcd60e51b815260206004820152602a60248201527f42696c6c4f664c6164696e673a2062757965722063616e6e6f74206265207a65604482015269726f206164647265737360b01b6064820152608401620000c2565b600087116200022b5760405162461bcd60e51b815260206004820152603660248201527f42696c6c4f664c6164696e673a206465636c617265642076616c7565206d757360448201527f742062652067726561746572207468616e207a65726f000000000000000000006064820152608401620000c2565b6040518061018001604052808b8152602001896001600160a01b031681526020018a6001600160a01b0316815260200160006001600160a01b031681526020018881526020016000815260200160008152602001600081526020016000151581526020016000151581526020016000151581526020016000151581525060096000820151816000015560208201518160010160006101000a8154816001600160a01b0302191690836001600160a01b0316021790555060408201518160020160006101000a8154816001600160a01b0302191690836001600160a01b0316021790555060608201518160030160006101000a8154816001600160a01b0302191690836001600160a01b031602179055506080820151816004015560a0820151816005015560c0820151816006015560e082015181600701556101008201518160080160006101000a81548160ff0219169083151502179055506101208201518160080160016101000a81548160ff0219169083151502179055506101408201518160080160026101000a81548160ff0219169083151502179055506101608201518160080160036101000a81548160ff0219169083151502179055509050506040518060a0016040528086815260200185815260200184815260200183815260200182815250601260008201518160000190816200042a919062000873565b506020820151600182019062000441908262000873565b506040820151600282019062000458908262000873565b50606082015160038201906200046f908262000873565b506080820151600482019062000486908262000873565b5060199150620004999050878262000873565b503087604051620004aa90620005a8565b6001600160a01b0390921682526020820152604001604051809103906000f080158015620004dc573d6000803e3d6000fd5b50600880546001600160a01b0319166001600160a01b039283161790556040518a8216918a16907f602f7ffbb554ffeacb90946505b0c7954b917f85fb3de26178bc64e3b39cf10b906200053e908b908b908b908b908b908b908b906200096d565b60405180910390a35050505050505050505062000a02565b600680546001600160a01b038381166001600160a01b0319831681179093556040519116919082907f8be0079c531659141344cd1fd0a4f28419497f9722a3daafe3b4186f6b6457e090600090a35050565b610cf78062003a9483390190565b80516001600160a01b0381168114620005ce57600080fd5b919050565b634e487b7160e01b600052604160045260246000fd5b60005b8381101562000606578181015183820152602001620005ec565b50506000910152565b600082601f8301126200062157600080fd5b81516001600160401b03808211156200063e576200063e620005d3565b604051601f8301601f19908116603f01168101908282118183101715620006695762000669620005d3565b816040528381528660208588010111156200068357600080fd5b62000696846020830160208901620005e9565b9695505050505050565b6000806000806000806000806000806101408b8d031215620006c157600080fd5b8a519950620006d360208c01620005b6565b9850620006e360408c01620005b6565b60608c015160808d015191995097506001600160401b03808211156200070857600080fd5b620007168e838f016200060f565b975060a08d01519150808211156200072d57600080fd5b6200073b8e838f016200060f565b965060c08d01519150808211156200075257600080fd5b620007608e838f016200060f565b955060e08d01519150808211156200077757600080fd5b620007858e838f016200060f565b94506101008d01519150808211156200079d57600080fd5b620007ab8e838f016200060f565b93506101208d0151915080821115620007c357600080fd5b50620007d28d828e016200060f565b9150509295989b9194979a5092959850565b600181811c90821680620007f957607f821691505b6020821081036200081a57634e487b7160e01b600052602260045260246000fd5b50919050565b601f8211156200086e57600081815260208120601f850160051c81016020861015620008495750805b601f850160051c820191505b818110156200086a5782815560010162000855565b5050505b505050565b81516001600160401b038111156200088f576200088f620005d3565b620008a781620008a08454620007e4565b8462000820565b602080601f831160018114620008df5760008415620008c65750858301515b600019600386901b1c1916600185901b1785556200086a565b600085815260208120601f198616915b828110156200091057888601518255948401946001909101908401620008ef565b50858210156200092f5787850151600019600388901b60f8161c191681555b5050505050600190811b01905550565b6000815180845262000959816020860160208601620005e9565b601f01601f19169290920160200192915050565b87815260e0602082015260006200098860e08301896200093f565b82810360408401526200099c81896200093f565b90508281036060840152620009b281886200093f565b90508281036080840152620009c881876200093f565b905082810360a0840152620009de81866200093f565b905082810360c0840152620009f481856200093f565b9a9950505050505050505050565b6130828062000a126000396000f3fe608060405234801561001057600080fd5b50600436106102065760003560e01c806395d89b411161011a578063c6c3bbe6116100ad578063e088bfc01161007c578063e088bfc014610640578063e8a61cc814610653578063e985e9c51461065b578063ecfda4861461066e578063f2fde38b1461067657600080fd5b8063c6c3bbe6146105ff578063c815729d14610612578063c87b56dd14610625578063ca7957381461063857600080fd5b8063b88d4fde116100e9578063b88d4fde146104c1578063be040fb0146104d4578063be43bef5146104dc578063c290d691146105ec57600080fd5b806395d89b411461048b578063a192058614610493578063a22cb465146104a6578063b71c47a2146104b957600080fd5b80634451d89f1161019d57806370a082311161016c57806370a082311461032c578063715018a61461033f578063864e1827146103475780638a72ea6a1461040c5780638da5cb5b1461047a57600080fd5b80634451d89f146102f55780635f5d0655146103085780636352211e146103115780636e826e0e1461032457600080fd5b806323b872dd116101d957806323b872dd1461028857806334600f9d1461029b578063392f37e9146102c957806342842e0e146102e257600080fd5b806301ffc9a71461020b57806306fdde0314610233578063081812fc14610248578063095ea7b314610273575b600080fd5b61021e6102193660046129fa565b610689565b60405190151581526020015b60405180910390f35b61023b6106db565b60405161022a9190612a67565b61025b610256366004612a7a565b61076d565b6040516001600160a01b03909116815260200161022a565b610286610281366004612aaf565b610796565b005b610286610296366004612ad9565b6107a5565b6102bb6102a9366004612b15565b601a6020526000908152604090205481565b60405190815260200161022a565b6102d1610835565b60405161022a959493929190612b30565b6102866102f0366004612ad9565b610aff565b60085461025b906001600160a01b031681565b6102bb60185481565b61025b61031f366004612a7a565b610b1f565b61023b610b2a565b6102bb61033a366004612b15565b610bb8565b610286610c00565b600954600a54600b54600c54600d54600e54600f5460105460115461039e98976001600160a01b039081169781169616949392919060ff80821691610100810482169162010000820481169163010000009004168c565b604080519c8d526001600160a01b039b8c1660208e0152998b16998c01999099529890961660608a0152608089019490945260a088019290925260c087015260e08601521515610100850152151561012084015290151561014083015215156101608201526101800161022a565b61044e61041a366004612a7a565b60176020526000908152604090208054600182015460028301546003909301546001600160a01b0390921692909160ff1684565b604080516001600160a01b0390951685526020850193909352918301521515606082015260800161022a565b6006546001600160a01b031661025b565b61023b610c14565b6102bb6104a1366004612b9d565b610c23565b6102866104b4366004612bbf565b610e0a565b610286610e15565b6102866104cf366004612c11565b610f3c565b610286610f54565b6105df6040805161018081018252600080825260208201819052918101829052606081018290526080810182905260a0810182905260c0810182905260e081018290526101008101829052610120810182905261014081018290526101608101919091525060408051610180810182526009548152600a546001600160a01b039081166020830152600b54811692820192909252600c549091166060820152600d546080820152600e5460a0820152600f5460c082015260105460e082015260115460ff80821615156101008085019190915282048116151561012084015262010000820481161515610140840152630100000090910416151561016082015290565b60405161022a9190612ced565b6102866105fa366004612a7a565b6113f5565b61028661060d366004612ad9565b611537565b610286610620366004612a7a565b6116f3565b61023b610633366004612a7a565b611acc565b6102bb600181565b61028661064e366004612b15565b611b41565b610286611c3e565b61021e610669366004612db4565b611f23565b610286611f51565b610286610684366004612b15565b61207c565b60006001600160e01b031982166380ac58cd60e01b14806106ba57506001600160e01b03198216635b5e139f60e01b145b806106d557506301ffc9a760e01b6001600160e01b03198316145b92915050565b6060600080546106ea90612de7565b80601f016020809104026020016040519081016040528092919081815260200182805461071690612de7565b80156107635780601f1061073857610100808354040283529160200191610763565b820191906000526020600020905b81548152906001019060200180831161074657829003601f168201915b5050505050905090565b6000610778826120b7565b506000828152600460205260409020546001600160a01b03166106d5565b6107a18282336120f0565b5050565b6001600160a01b0382166107d457604051633250574960e11b8152600060048201526024015b60405180910390fd5b60006107e18383336120fd565b9050836001600160a01b0316816001600160a01b03161461082f576040516364283d7b60e01b81526001600160a01b03808616600483015260248201849052821660448201526064016107cb565b50505050565b60128054819061084490612de7565b80601f016020809104026020016040519081016040528092919081815260200182805461087090612de7565b80156108bd5780601f10610892576101008083540402835291602001916108bd565b820191906000526020600020905b8154815290600101906020018083116108a057829003601f168201915b5050505050908060010180546108d290612de7565b80601f01602080910402602001604051908101604052809291908181526020018280546108fe90612de7565b801561094b5780601f106109205761010080835404028352916020019161094b565b820191906000526020600020905b81548152906001019060200180831161092e57829003601f168201915b50505050509080600201805461096090612de7565b80601f016020809104026020016040519081016040528092919081815260200182805461098c90612de7565b80156109d95780601f106109ae576101008083540402835291602001916109d9565b820191906000526020600020905b8154815290600101906020018083116109bc57829003601f168201915b5050505050908060030180546109ee90612de7565b80601f0160208091040260200160405190810160405280929190818152602001828054610a1a90612de7565b8015610a675780601f10610a3c57610100808354040283529160200191610a67565b820191906000526020600020905b815481529060010190602001808311610a4a57829003601f168201915b505050505090806004018054610a7c90612de7565b80601f0160208091040260200160405190810160405280929190818152602001828054610aa890612de7565b8015610af55780601f10610aca57610100808354040283529160200191610af5565b820191906000526020600020905b815481529060010190602001808311610ad857829003601f168201915b5050505050905085565b610b1a83838360405180602001604052806000815250610f3c565b505050565b60006106d5826120b7565b60198054610b3790612de7565b80601f0160208091040260200160405190810160405280929190818152602001828054610b6390612de7565b8015610bb05780601f10610b8557610100808354040283529160200191610bb0565b820191906000526020600020905b815481529060010190602001808311610b9357829003601f168201915b505050505081565b60006001600160a01b038216610be4576040516322718ad960e21b8152600060048201526024016107cb565b506001600160a01b031660009081526003602052604090205490565b610c086121f6565b610c126000612223565b565b6060600180546106ea90612de7565b60115460009062010000900460ff16610c4e5760405162461bcd60e51b81526004016107cb90612e21565b60115460ff1615610c715760405162461bcd60e51b81526004016107cb90612e62565b60008311610c915760405162461bcd60e51b81526004016107cb90612e99565b6000612710610ca08486612efd565b610caa9190612f14565b610cb49085612f36565b600d54600e5491925090610cc9908390612f36565b1115610d3d5760405162461bcd60e51b815260206004820152603d60248201527f42696c6c4f664c6164696e673a206f66666572207769746820696e746572657360448201527f7420776f756c6420657863656564206465636c617265642076616c756500000060648201526084016107cb565b6018805460009182610d4e83612f49565b90915550604080516080810182523380825260208083018a81528385018a8152600060608087018281528983526017865291889020965187546001600160a01b0319166001600160a01b039091161787559251600187015590516002860155516003909401805460ff19169415159490941790935583518a81529081018990529283018490529293507f6651ad68b77f61e7600bc16c3c7108ec45225340ce47a77729663f01b5fcc0b1910160405180910390a2949350505050565b6107a1338383612275565b600a546001600160a01b03163314610e7e5760405162461bcd60e51b815260206004820152602660248201527f42696c6c4f664c6164696e673a206f6e6c792062757965722063616e207375726044820152653932b73232b960d11b60648201526084016107cb565b60115462010000900460ff16610ee25760405162461bcd60e51b8152602060048201526024808201527f42696c6c4f664c6164696e673a2066756e64696e67206973206e6f7420656e61604482015263189b195960e21b60648201526084016107cb565b60115460ff1615610f055760405162461bcd60e51b81526004016107cb90612e62565b6011805462ff0000191690556040517f2e8acb0d9d788a0ec57a41bd30f1d7e7e5512ab7ea0b09f526c7745287da001190600090a1565b610f478484846107a5565b61082f3385858585612314565b610f5c61243f565b60115460ff1615610f7f5760405162461bcd60e51b81526004016107cb90612e62565b601054610fdc5760405162461bcd60e51b815260206004820152602560248201527f42696c6c4f664c6164696e673a206e6f2072657061796d656e747320617661696044820152646c61626c6560d81b60648201526084016107cb565b600c546001600160a01b03166110045760405162461bcd60e51b81526004016107cb90612f62565b600e546110535760405162461bcd60e51b815260206004820181905260248201527f42696c6c4f664c6164696e673a206e6f7468696e67207761732066756e64656460448201526064016107cb565b6008546040516370a0823160e01b81523360048201526000916001600160a01b0316906370a0823190602401602060405180830381865afa15801561109c573d6000803e3d6000fd5b505050506040513d601f19601f820116820180604052508101906110c09190612f97565b9050600081116111225760405162461bcd60e51b815260206004820152602760248201527f42696c6c4f664c6164696e673a206e6f20636c61696d20746f6b656e7320746f6044820152662072656465656d60c81b60648201526084016107cb565b600854604080516318160ddd60e01b815290516000926001600160a01b0316916318160ddd9160048083019260209291908290030181865afa15801561116c573d6000803e3d6000fd5b505050506040513d601f19601f820116820180604052508101906111909190612f97565b9050600081116111f75760405162461bcd60e51b815260206004820152602c60248201527f42696c6c4f664c6164696e673a206e6f20636c61696d20746f6b656e7320696e60448201526b1031b4b931bab630ba34b7b760a11b60648201526084016107cb565b600e5460009082906112099085612efd565b6112139190612f14565b336000908152601a602052604081205491925081831161123457600061123e565b61123e8284612fb0565b9050600081116112905760405162461bcd60e51b815260206004820152601f60248201527f42696c6c4f664c6164696e673a206e6f7468696e6720746f2072656465656d0060448201526064016107cb565b336000818152601a60205260409020849055600c5486916001600160a01b03909116906112bf90829085612469565b600854604051632770a7eb60e21b8152336004820152602481018490526001600160a01b0390911690639dc29fac90604401600060405180830381600087803b15801561130b57600080fd5b505af115801561131f573d6000803e3d6000fd5b505060408051868152602081018690523393507f987d620f307ff6b94d58743cb7a7509f24071586a77759b77c2d4e29f75a2f9a92500160405180910390a2600860009054906101000a90046001600160a01b03166001600160a01b03166318160ddd6040518163ffffffff1660e01b8152600401602060405180830381865afa1580156113b1573d6000803e3d6000fd5b505050506040513d601f19601f820116820180604052508101906113d59190612f97565b6000036113e4576113e46124c8565b50505050505050610c126001600755565b6113fd61243f565b600a546001600160a01b031633146114575760405162461bcd60e51b815260206004820181905260248201527f42696c6c4f664c6164696e673a206f6e6c792062757965722063616e2070617960448201526064016107cb565b60115460ff161561147a5760405162461bcd60e51b81526004016107cb90612e62565b6000811161149a5760405162461bcd60e51b81526004016107cb90612e99565b600c546001600160a01b03166114c25760405162461bcd60e51b81526004016107cb90612f62565b600c546001600160a01b03166114da8133308561255f565b81600960070160008282546114ef9190612f36565b909155505060405182815233907f737c69225d647e5994eab1a6c301bf6d9232beb2759ae1e27a8966b4732bc4899060200160405180910390a2506115346001600755565b50565b6011546301000000900460ff16156115915760405162461bcd60e51b815260206004820181905260248201527f42696c6c4f664c6164696e673a204e465420616c7265616479206d696e74656460448201526064016107cb565b600a546001600160a01b038481169116146115ee5760405162461bcd60e51b815260206004820152601c60248201527f42696c6c4f664c6164696e673a206275796572206d69736d617463680000000060448201526064016107cb565b600b546001600160a01b0383811691161461164b5760405162461bcd60e51b815260206004820152601d60248201527f42696c6c4f664c6164696e673a2073656c6c6572206d69736d6174636800000060448201526064016107cb565b600d5481146116a85760405162461bcd60e51b8152602060048201526024808201527f42696c6c4f664c6164696e673a206465636c6172656456616c7565206d69736d6044820152630c2e8c6d60e31b60648201526084016107cb565b600c546001600160a01b03166116d05760405162461bcd60e51b81526004016107cb90612f62565b6116db306001612598565b50506011805463ff0000001916630100000017905550565b6116fb61243f565b600b546001600160a01b031633146117695760405162461bcd60e51b815260206004820152602b60248201527f42696c6c4f664c6164696e673a206f6e6c792073656c6c65722063616e20616360448201526a63657074206f666665727360a81b60648201526084016107cb565b60115462010000900460ff166117915760405162461bcd60e51b81526004016107cb90612e21565b60115460ff16156117b45760405162461bcd60e51b81526004016107cb90612e62565b600c546001600160a01b03166117dc5760405162461bcd60e51b81526004016107cb90612f62565b600081815260176020526040902080546001600160a01b031661184c5760405162461bcd60e51b815260206004820152602260248201527f42696c6c4f664c6164696e673a206f6666657220646f6573206e6f74206578696044820152611cdd60f21b60648201526084016107cb565b600381015460ff16156118ad5760405162461bcd60e51b8152602060048201526024808201527f42696c6c4f664c6164696e673a206f6666657220616c726561647920616363656044820152631c1d195960e21b60648201526084016107cb565b6001810154600282015460006127106118c68385612efd565b6118d09190612f14565b6118da9084612f36565b600d54600e54919250906118ef908390612f36565b11156119635760405162461bcd60e51b815260206004820152603960248201527f42696c6c4f664c6164696e673a20616363657074696e67206f6666657220776f60448201527f756c6420657863656564206465636c617265642076616c75650000000000000060648201526084016107cb565b600c548454600b546001600160a01b039283169261198892849290821691168761255f565b60085485546040516340c10f1960e01b81526001600160a01b039182166004820152602481018590529116906340c10f1990604401600060405180830381600087803b1580156119d757600080fd5b505af11580156119eb573d6000803e3d6000fd5b505050508160096005016000828254611a049190612f36565b9091555050600f8054859190600090611a1e908490612f36565b909155505060038501805460ff1916600117905584546040805186815260208101859052908101859052606081018890526001600160a01b03909116907fd0fdcb52e246f4f01269c2a4465377e6a9585c6641a1f1c6283b49a37e1e25da9060800160405180910390a2600d54600e5403611abd576040517ff36efb6fa3e5dc00512e1b052905075cff63f39fd0ba2dcc94d3b56927c1487190600090a15b50505050506115346001600755565b6060611ad7826120b7565b506000611aef60408051602081019091526000815290565b90506000815111611b0f5760405180602001604052806000815250611b3a565b80611b19846125fd565b604051602001611b2a929190612fc3565b6040516020818303038152906040525b9392505050565b611b496121f6565b600c546001600160a01b031615611bae5760405162461bcd60e51b8152602060048201526024808201527f42696c6c4f664c6164696e673a20737461626c65636f696e20616c7265616479604482015263081cd95d60e21b60648201526084016107cb565b6001600160a01b038116611c1c5760405162461bcd60e51b815260206004820152602f60248201527f42696c6c4f664c6164696e673a20737461626c65636f696e2063616e6e6f742060448201526e6265207a65726f206164647265737360881b60648201526084016107cb565b600c80546001600160a01b0319166001600160a01b0392909216919091179055565b611c4661243f565b600a546001600160a01b03163314611cac5760405162461bcd60e51b815260206004820152602360248201527f42696c6c4f664c6164696e673a206f6e6c792062757965722063616e207265666044820152621d5b9960ea1b60648201526084016107cb565b60115460ff1615611ccf5760405162461bcd60e51b81526004016107cb90612e62565b601054611d1e5760405162461bcd60e51b815260206004820152601e60248201527f42696c6c4f664c6164696e673a206e6f207061796d656e7473206d616465000060448201526064016107cb565b600860009054906101000a90046001600160a01b03166001600160a01b03166318160ddd6040518163ffffffff1660e01b8152600401602060405180830381865afa158015611d71573d6000803e3d6000fd5b505050506040513d601f19601f82011682018060405250810190611d959190612f97565b15611e005760405162461bcd60e51b815260206004820152603560248201527f42696c6c4f664c6164696e673a20616c6c20636c61696d20746f6b656e73206d6044820152741d5cdd081899481c995919595b595908199a5c9cdd605a1b60648201526084016107cb565b600c546001600160a01b0316611e285760405162461bcd60e51b81526004016107cb90612f62565b600f5460105460009110611e3d576000611e4d565b600f54601054611e4d9190612fb0565b905060008111611ea95760405162461bcd60e51b815260206004820152602160248201527f42696c6c4f664c6164696e673a206e6f2065786365737320746f20726566756e6044820152601960fa1b60648201526084016107cb565b600c546001600160a01b0316611ec0813384612469565b8160096007016000828254611ed59190612fb0565b909155505060405182815233907fd7dee2702d63ad89917b6a4da9981c90c4d24f8c2bdfd64c604ecae57d8d06519060200160405180910390a2611f176124c8565b5050610c126001600755565b6001600160a01b03918216600090815260056020908152604080832093909416825291909152205460ff1690565b6011546301000000900460ff16611fb95760405162461bcd60e51b815260206004820152602660248201527f42696c6c4f664c6164696e673a204e4654206d757374206265206d696e74656460448201526508199a5c9cdd60d21b60648201526084016107cb565b601154610100900460ff161561201d5760405162461bcd60e51b815260206004820152602360248201527f42696c6c4f664c6164696e673a20636c61696d7320616c7265616479206973736044820152621d595960ea1b60648201526084016107cb565b60115460ff16156120405760405162461bcd60e51b81526004016107cb90612e62565b6011805462ffff001916620101001790556040517fc9b0a2a786a606c7564c856e06c58d7280f2198c3db6f5966a7b302319a36c8990600090a1565b6120846121f6565b6001600160a01b0381166120ae57604051631e4fbdf760e01b8152600060048201526024016107cb565b61153481612223565b6000818152600260205260408120546001600160a01b0316806106d557604051637e27328960e01b8152600481018490526024016107cb565b610b1a8383836001612690565b6000828152600260205260408120546001600160a01b039081169083161561212a5761212a818486612796565b6001600160a01b0381161561216857612147600085600080612690565b6001600160a01b038116600090815260036020526040902080546000190190555b6001600160a01b03851615612197576001600160a01b0385166000908152600360205260409020805460010190555b60008481526002602052604080822080546001600160a01b0319166001600160a01b0389811691821790925591518793918516917fddf252ad1be2c89b69c2b068fc378daa952ba7f163c4a11628f55a4df523b3ef91a4949350505050565b6006546001600160a01b03163314610c125760405163118cdaa760e01b81523360048201526024016107cb565b600680546001600160a01b038381166001600160a01b0319831681179093556040519116919082907f8be0079c531659141344cd1fd0a4f28419497f9722a3daafe3b4186f6b6457e090600090a35050565b6001600160a01b0382166122a757604051630b61174360e31b81526001600160a01b03831660048201526024016107cb565b6001600160a01b03838116600081815260056020908152604080832094871680845294825291829020805460ff191686151590811790915591519182527f17307eab39ab6107e8899845ad3d59bd9653f200f220920489ca2b5937696c31910160405180910390a3505050565b6001600160a01b0383163b1561243857604051630a85bd0160e11b81526001600160a01b0384169063150b7a0290612356908890889087908790600401612ff2565b6020604051808303816000875af1925050508015612391575060408051601f3d908101601f1916820190925261238e9181019061302f565b60015b6123fa573d8080156123bf576040519150601f19603f3d011682016040523d82523d6000602084013e6123c4565b606091505b5080516000036123f257604051633250574960e11b81526001600160a01b03851660048201526024016107cb565b805160208201fd5b6001600160e01b03198116630a85bd0160e11b1461243657604051633250574960e11b81526001600160a01b03851660048201526024016107cb565b505b5050505050565b60026007540361246257604051633ee5aeb560e01b815260040160405180910390fd5b6002600755565b6040516001600160a01b03838116602483015260448201839052610b1a91859182169063a9059cbb906064015b604051602081830303815290604052915060e01b6020820180516001600160e01b0383818316178352505050506127fa565b60115460ff161561251b5760405162461bcd60e51b815260206004820152601d60248201527f42696c6c4f664c6164696e673a20616c726561647920736574746c656400000060448201526064016107cb565b6011805460ff191660019081179091556125349061286b565b6040517f97088ec3606cfe8cc112180570d03fcde05f9b8e1bfef8e27784eaf5dd5691b690600090a1565b6040516001600160a01b03848116602483015283811660448301526064820183905261082f9186918216906323b872dd90608401612496565b6001600160a01b0382166125c257604051633250574960e11b8152600060048201526024016107cb565b60006125d0838360006120fd565b90506001600160a01b03811615610b1a576040516339e3563760e11b8152600060048201526024016107cb565b6060600061260a836128a6565b600101905060008167ffffffffffffffff81111561262a5761262a612bfb565b6040519080825280601f01601f191660200182016040528015612654576020820181803683370190505b5090508181016020015b600019016f181899199a1a9b1b9c1cb0b131b232b360811b600a86061a8153600a850494508461265e57509392505050565b80806126a457506001600160a01b03821615155b156127665760006126b4846120b7565b90506001600160a01b038316158015906126e05750826001600160a01b0316816001600160a01b031614155b80156126f357506126f18184611f23565b155b1561271c5760405163a9fbf51f60e01b81526001600160a01b03841660048201526024016107cb565b81156127645783856001600160a01b0316826001600160a01b03167f8c5be1e5ebec7d5bd14f71427d1e84f3dd0314c0f7b2291e5b200ac8c7c3b92560405160405180910390a45b505b5050600090815260046020526040902080546001600160a01b0319166001600160a01b0392909216919091179055565b6127a183838361297e565b610b1a576001600160a01b0383166127cf57604051637e27328960e01b8152600481018290526024016107cb565b60405163177e802f60e01b81526001600160a01b0383166004820152602481018290526044016107cb565b600080602060008451602086016000885af18061281d576040513d6000823e3d81fd5b50506000513d91508115612835578060011415612842565b6001600160a01b0384163b155b1561082f57604051635274afe760e01b81526001600160a01b03851660048201526024016107cb565b600061287a60008360006120fd565b90506001600160a01b0381166107a157604051637e27328960e01b8152600481018390526024016107cb565b60008072184f03e93ff9f4daa797ed6e38ed64bf6a1f0160401b83106128e55772184f03e93ff9f4daa797ed6e38ed64bf6a1f0160401b830492506040015b6d04ee2d6d415b85acef81000000008310612911576d04ee2d6d415b85acef8100000000830492506020015b662386f26fc10000831061292f57662386f26fc10000830492506010015b6305f5e1008310612947576305f5e100830492506008015b612710831061295b57612710830492506004015b6064831061296d576064830492506002015b600a83106106d55760010192915050565b60006001600160a01b038316158015906129dc5750826001600160a01b0316846001600160a01b031614806129b857506129b88484611f23565b806129dc57506000828152600460205260409020546001600160a01b038481169116145b949350505050565b6001600160e01b03198116811461153457600080fd5b600060208284031215612a0c57600080fd5b8135611b3a816129e4565b60005b83811015612a32578181015183820152602001612a1a565b50506000910152565b60008151808452612a53816020860160208601612a17565b601f01601f19169290920160200192915050565b602081526000611b3a6020830184612a3b565b600060208284031215612a8c57600080fd5b5035919050565b80356001600160a01b0381168114612aaa57600080fd5b919050565b60008060408385031215612ac257600080fd5b612acb83612a93565b946020939093013593505050565b600080600060608486031215612aee57600080fd5b612af784612a93565b9250612b0560208501612a93565b9150604084013590509250925092565b600060208284031215612b2757600080fd5b611b3a82612a93565b60a081526000612b4360a0830188612a3b565b8281036020840152612b558188612a3b565b90508281036040840152612b698187612a3b565b90508281036060840152612b7d8186612a3b565b90508281036080840152612b918185612a3b565b98975050505050505050565b60008060408385031215612bb057600080fd5b50508035926020909101359150565b60008060408385031215612bd257600080fd5b612bdb83612a93565b915060208301358015158114612bf057600080fd5b809150509250929050565b634e487b7160e01b600052604160045260246000fd5b60008060008060808587031215612c2757600080fd5b612c3085612a93565b9350612c3e60208601612a93565b925060408501359150606085013567ffffffffffffffff80821115612c6257600080fd5b818701915087601f830112612c7657600080fd5b813581811115612c8857612c88612bfb565b604051601f8201601f19908116603f01168101908382118183101715612cb057612cb0612bfb565b816040528281528a6020848701011115612cc957600080fd5b82602086016020830137600060208483010152809550505050505092959194509250565b81518152602080830151610180830191612d11908401826001600160a01b03169052565b506040830151612d2c60408401826001600160a01b03169052565b506060830151612d4760608401826001600160a01b03169052565b506080830151608083015260a083015160a083015260c083015160c083015260e083015160e083015261010080840151612d848285018215159052565b50506101208381015115159083015261014080840151151590830152610160928301511515929091019190915290565b60008060408385031215612dc757600080fd5b612dd083612a93565b9150612dde60208401612a93565b90509250929050565b600181811c90821680612dfb57607f821691505b602082108103612e1b57634e487b7160e01b600052602260045260246000fd5b50919050565b60208082526021908201527f42696c6c4f664c6164696e673a2066756e64696e67206e6f7420656e61626c656040820152601960fa1b606082015260800190565b6020808252601e908201527f42696c6c4f664c6164696e673a20747261646520697320736574746c65640000604082015260600190565b6020808252602e908201527f42696c6c4f664c6164696e673a20616d6f756e74206d7573742062652067726560408201526d61746572207468616e207a65726f60901b606082015260800190565b634e487b7160e01b600052601160045260246000fd5b80820281158282048414176106d5576106d5612ee7565b600082612f3157634e487b7160e01b600052601260045260246000fd5b500490565b808201808211156106d5576106d5612ee7565b600060018201612f5b57612f5b612ee7565b5060010190565b6020808252818101527f42696c6c4f664c6164696e673a20737461626c65636f696e206e6f7420736574604082015260600190565b600060208284031215612fa957600080fd5b5051919050565b818103818111156106d5576106d5612ee7565b60008351612fd5818460208801612a17565b835190830190612fe9818360208801612a17565b01949350505050565b6001600160a01b038581168252841660208201526040810183905260806060820181905260009061302590830184612a3b565b9695505050505050565b60006020828403121561304157600080fd5b8151611b3a816129e456fea2646970667358221220989f8252483f5ea671b20cfa25a16c15c55e5d2294e17ce4030b644a4466542a64736f6c6343000814003360a06040523480156200001157600080fd5b5060405162000cf738038062000cf7833981016040819052620000349162000137565b81604051806040016040528060118152602001702a3930b2329021b630b4b6902a37b5b2b760791b81525060405180604001604052806005815260200164434c41494d60d81b81525081600390816200008e919062000218565b5060046200009d828262000218565b5050506001600160a01b038116620000cf57604051631e4fbdf760e01b81526000600482015260240160405180910390fd5b620000da81620000e5565b5060805250620002e4565b600580546001600160a01b038381166001600160a01b0319831681179093556040519116919082907f8be0079c531659141344cd1fd0a4f28419497f9722a3daafe3b4186f6b6457e090600090a35050565b600080604083850312156200014b57600080fd5b82516001600160a01b03811681146200016357600080fd5b6020939093015192949293505050565b634e487b7160e01b600052604160045260246000fd5b600181811c908216806200019e57607f821691505b602082108103620001bf57634e487b7160e01b600052602260045260246000fd5b50919050565b601f8211156200021357600081815260208120601f850160051c81016020861015620001ee5750805b601f850160051c820191505b818110156200020f57828155600101620001fa565b5050505b505050565b81516001600160401b0381111562000234576200023462000173565b6200024c8162000245845462000189565b84620001c5565b602080601f8311600181146200028457600084156200026b5750858301515b600019600386901b1c1916600185901b1785556200020f565b600085815260208120601f198616915b82811015620002b55788860151825594840194600190910190840162000294565b5085821015620002d45787850151600019600388901b60f8161c191681555b5050505050600190811b01905550565b6080516109f06200030760003960008181610203015261034b01526109f06000f3fe608060405234801561001057600080fd5b50600436106100f55760003560e01c8063715018a611610097578063a9059cbb11610066578063a9059cbb146101eb578063d5abeb01146101fe578063dd62ed3e14610225578063f2fde38b1461025e57600080fd5b8063715018a6146101ad5780638da5cb5b146101b557806395d89b41146101d05780639dc29fac146101d857600080fd5b806323b872dd116100d357806323b872dd1461014d578063313ce5671461016057806340c10f191461016f57806370a082311461018457600080fd5b806306fdde03146100fa578063095ea7b31461011857806318160ddd1461013b575b600080fd5b610102610271565b60405161010f919061083a565b60405180910390f35b61012b6101263660046108a4565b610303565b604051901515815260200161010f565b6002545b60405190815260200161010f565b61012b61015b3660046108ce565b61031d565b6040516012815260200161010f565b61018261017d3660046108a4565b610341565b005b61013f61019236600461090a565b6001600160a01b031660009081526020819052604090205490565b6101826103df565b6005546040516001600160a01b03909116815260200161010f565b6101026103f3565b6101826101e63660046108a4565b610402565b61012b6101f93660046108a4565b610414565b61013f7f000000000000000000000000000000000000000000000000000000000000000081565b61013f61023336600461092c565b6001600160a01b03918216600090815260016020908152604080832093909416825291909152205490565b61018261026c36600461090a565b610422565b6060600380546102809061095f565b80601f01602080910402602001604051908101604052809291908181526020018280546102ac9061095f565b80156102f95780601f106102ce576101008083540402835291602001916102f9565b820191906000526020600020905b8154815290600101906020018083116102dc57829003601f168201915b5050505050905090565b600033610311818585610460565b60019150505b92915050565b60003361032b858285610472565b6103368585856104f1565b506001949350505050565b610349610550565b7f00000000000000000000000000000000000000000000000000000000000000008161037460025490565b61037e9190610999565b11156103d15760405162461bcd60e51b815260206004820152601e60248201527f436c61696d546f6b656e3a2065786365656473206d617820737570706c79000060448201526064015b60405180910390fd5b6103db828261057d565b5050565b6103e7610550565b6103f160006105b3565b565b6060600480546102809061095f565b61040a610550565b6103db8282610605565b6000336103118185856104f1565b61042a610550565b6001600160a01b03811661045457604051631e4fbdf760e01b8152600060048201526024016103c8565b61045d816105b3565b50565b61046d838383600161063b565b505050565b6001600160a01b038381166000908152600160209081526040808320938616835292905220546000198110156104eb57818110156104dc57604051637dc7a0d960e11b81526001600160a01b038416600482015260248101829052604481018390526064016103c8565b6104eb8484848403600061063b565b50505050565b6001600160a01b03831661051b57604051634b637e8f60e11b8152600060048201526024016103c8565b6001600160a01b0382166105455760405163ec442f0560e01b8152600060048201526024016103c8565b61046d838383610710565b6005546001600160a01b031633146103f15760405163118cdaa760e01b81523360048201526024016103c8565b6001600160a01b0382166105a75760405163ec442f0560e01b8152600060048201526024016103c8565b6103db60008383610710565b600580546001600160a01b038381166001600160a01b0319831681179093556040519116919082907f8be0079c531659141344cd1fd0a4f28419497f9722a3daafe3b4186f6b6457e090600090a35050565b6001600160a01b03821661062f57604051634b637e8f60e11b8152600060048201526024016103c8565b6103db82600083610710565b6001600160a01b0384166106655760405163e602df0560e01b8152600060048201526024016103c8565b6001600160a01b03831661068f57604051634a1406b160e11b8152600060048201526024016103c8565b6001600160a01b03808516600090815260016020908152604080832093871683529290522082905580156104eb57826001600160a01b0316846001600160a01b03167f8c5be1e5ebec7d5bd14f71427d1e84f3dd0314c0f7b2291e5b200ac8c7c3b9258460405161070291815260200190565b60405180910390a350505050565b6001600160a01b03831661073b5780600260008282546107309190610999565b909155506107ad9050565b6001600160a01b0383166000908152602081905260409020548181101561078e5760405163391434e360e21b81526001600160a01b038516600482015260248101829052604481018390526064016103c8565b6001600160a01b03841660009081526020819052604090209082900390555b6001600160a01b0382166107c9576002805482900390556107e8565b6001600160a01b03821660009081526020819052604090208054820190555b816001600160a01b0316836001600160a01b03167fddf252ad1be2c89b69c2b068fc378daa952ba7f163c4a11628f55a4df523b3ef8360405161082d91815260200190565b60405180910390a3505050565b600060208083528351808285015260005b818110156108675785810183015185820160400152820161084b565b506000604082860101526040601f19601f8301168501019250505092915050565b80356001600160a01b038116811461089f57600080fd5b919050565b600080604083850312156108b757600080fd5b6108c083610888565b946020939093013593505050565b6000806000606084860312156108e357600080fd5b6108ec84610888565b92506108fa60208501610888565b9150604084013590509250925092565b60006020828403121561091c57600080fd5b61092582610888565b9392505050565b6000806040838503121561093f57600080fd5b61094883610888565b915061095660208401610888565b90509250929050565b600181811c9082168061097357607f821691505b60208210810361099357634e487b7160e01b600052602260045260246000fd5b50919050565b8082018082111561031757634e487b7160e01b600052601160045260246000fdfea2646970667358221220c3271d238a3b75a899d27ccdcd919290e79ed81dcae9005b2a4bf49e73cb13cc64736f6c63430008140033a2646970667358221220ebd1050aab87c2233a9aab346deccb5c87000d3303321b9d19ed9ec6ad24bcf664736f6c63430008140033",
  "linkReferences": {},
  "deployedLinkReferences": {}
}